{
  "transactions": [
    {
      "hash": "0x70a37f70e8211283bbed8b272388e99fbb2716446f5b4c3c35114ac410d6c279",
      "transactionType": "CREATE",
      "contractName": "Airdropper",
      "contractAddress": "0xc5325139aa7201bf207fa2b773aaed3034f4a23a",
      "function": null,
      "arguments": [
        "0x989513c695133527a3c4fac2b40c07cd287941d7729b56b59edecb96111ef884",
        "0x5B5dee44552546ECEA05EDeA01DCD7Be7aa6144A",
        "1713110400"
      ],
      "transaction": {
        "from": "0x16760803046ffa4d05878333b0953bbddc0c20cb",
        "to": null,
        "gas": "0x9855c",
        "value": "0x0",
        "input": "0x608060405234801561000f575f80fd5b506040516106eb3803806106eb83398101604081905261002e9161009c565b5f80546001600160a01b031916339081178255604051909182917f8be0079c531659141344cd1fd0a4f28419497f9722a3daafe3b4186f6b6457e0908290a350600192909255600280546001600160a01b0319166001600160a01b03929092169190911790556003556100de565b5f805f606084860312156100ae575f80fd5b835160208501519093506001600160a01b03811681146100cc575f80fd5b80925050604084015190509250925092565b610600806100eb5f395ff3fe608060405234801561000f575f80fd5b5060043610610090575f3560e01c806373b2e80e1161006357806373b2e80e146100eb57806378e979251461011d5780638da5cb5b14610126578063c85654c414610150578063f2fde38b14610163575f80fd5b806306bcf02f146100945780632eb4a7ab146100a95780632f52ebb7146100c557806351cff8d9146100d8575b5f80fd5b6100a76100a23660046104b2565b610176565b005b6100b260015481565b6040519081526020015b60405180910390f35b6100a76100d33660046104c9565b6101ad565b6100a76100e6366004610541565b610253565b61010d6100f9366004610541565b60046020525f908152604090205460ff1681565b60405190151581526020016100bc565b6100b260035481565b5f54610138906001600160a01b031681565b6040516001600160a01b0390911681526020016100bc565b600254610138906001600160a01b031681565b6100a7610171366004610541565b610360565b5f546001600160a01b031633146101a85760405162461bcd60e51b815260040161019f9061056e565b60405180910390fd5b600355565b6003544210156101d057604051636f312cbd60e01b815260040160405180910390fd5b6101db8383836103d3565b60025460405163a9059cbb60e01b8152336004820152602481018590526001600160a01b039091169063a9059cbb906044016020604051808303815f875af1158015610229573d5f803e3d5ffd5b505050506040513d601f19601f8201168201806040525081019061024d9190610594565b50505050565b5f546001600160a01b0316331461027c5760405162461bcd60e51b815260040161019f9061056e565b6002546040516370a0823160e01b81523060048201526001600160a01b039091169063a9059cbb90839083906370a0823190602401602060405180830381865afa1580156102cc573d5f803e3d5ffd5b505050506040513d601f19601f820116820180604052508101906102f091906105b3565b6040516001600160e01b031960e085901b1681526001600160a01b03909216600483015260248201526044016020604051808303815f875af1158015610338573d5f803e3d5ffd5b505050506040513d601f19601f8201168201806040525081019061035c9190610594565b5050565b5f546001600160a01b031633146103895760405162461bcd60e51b815260040161019f9061056e565b5f80546001600160a01b0319166001600160a01b0383169081178255604051909133917f8be0079c531659141344cd1fd0a4f28419497f9722a3daafe3b4186f6b6457e09190a350565b604080513360208201529081018490525f9060600160405160208183030381529060405280519060200120905061040e83836001548461047a565b61042b576040516309bde33960e01b815260040160405180910390fd5b335f9081526004602052604090205460ff161561045b57604051632fb8f41360e21b815260040160405180910390fd5b5050335f908152600460205260409020805460ff191660011790555050565b5f83156104aa578360051b8501855b803580851160051b94855260209485185260405f2093018181106104895750505b501492915050565b5f602082840312156104c2575f80fd5b5035919050565b5f805f604084860312156104db575f80fd5b83359250602084013567ffffffffffffffff808211156104f9575f80fd5b818601915086601f83011261050c575f80fd5b81358181111561051a575f80fd5b8760208260051b850101111561052e575f80fd5b6020830194508093505050509250925092565b5f60208284031215610551575f80fd5b81356001600160a01b0381168114610567575f80fd5b9392505050565b6020808252600c908201526b15539055551213d49256915160a21b604082015260600190565b5f602082840312156105a4575f80fd5b81518015158114610567575f80fd5b5f602082840312156105c3575f80fd5b505191905056fea26469706673582212207e0f6be4605c18f15e02592371ca19ff2f900b9bb5146cae5e5beec1e68548eb64736f6c63430008170033989513c695133527a3c4fac2b40c07cd287941d7729b56b59edecb96111ef8840000000000000000000000005b5dee44552546ecea05edea01dcd7be7aa6144a00000000000000000000000000000000000000000000000000000000661bfd80",
        "nonce": "0x104",
        "chainId": "0x2105",
        "accessList": null,
        "type": null
      },
      "additionalContracts": [],
      "isFixedGasLimit": false
    },
    {
      "hash": "0x4a7dfe5ee1862ac95e154c0f9f27683c90dc56a2490371ac16df70f21782a0d4",
      "transactionType": "CALL",
      "contractName": null,
      "contractAddress": "0x5b5dee44552546ecea05edea01dcd7be7aa6144a",
      "function": "transfer(address,uint256)",
      "arguments": [
        "0xc5325139aa7201bF207FA2b773AAeD3034f4a23A",
        "166666667000000000000000000"
      ],
      "transaction": {
        "from": "0x16760803046ffa4d05878333b0953bbddc0c20cb",
        "to": "0x5b5dee44552546ecea05edea01dcd7be7aa6144a",
        "gas": "0xfb1d",
        "value": "0x0",
        "input": "0xa9059cbb000000000000000000000000c5325139aa7201bf207fa2b773aaed3034f4a23a00000000000000000000000000000000000000000089dd0a1f42fcf0b3cc0000",
        "nonce": "0x105",
        "chainId": "0x2105",
        "accessList": null,
        "type": null
      },
      "additionalContracts": [],
      "isFixedGasLimit": false
    }
  ],
  "receipts": [
    {
      "status": "0x1",
      "cumulativeGasUsed": "0x6825dd",
      "logs": [
        {
          "address": "0xc5325139aa7201bf207fa2b773aaed3034f4a23a",
          "topics": [
            "0x8be0079c531659141344cd1fd0a4f28419497f9722a3daafe3b4186f6b6457e0",
            "0x0000000000000000000000000000000000000000000000000000000000000000",
            "0x00000000000000000000000016760803046ffa4d05878333b0953bbddc0c20cb"
          ],
          "data": "0x",
          "blockHash": "0xe48db051319ace73688c7bf2a83509a447e3595af81485f6932728ab0bb2a200",
          "blockNumber": "0xc84bd2",
          "transactionHash": "0x70a37f70e8211283bbed8b272388e99fbb2716446f5b4c3c35114ac410d6c279",
          "transactionIndex": "0x1d",
          "logIndex": "0xc1",
          "removed": false
        }
      ],
      "logsBloom": "0x00000000000000000000000000000000000000000000000000800000000000000000000000000000000000000000000000000000000000000000000000000000000000000000000000000400000000000001000000000000000000008000000000000000020000000000000000000800000000000000000000000000000000400000000000000000000000000000000000000000008000000000000000000000000000000000000000000000000000100000000000000000000000000000000000000000000000000000000000000000000000000000000800000000000020000000000000000000000000000000000000000000000000000000008000000000",
      "type": "0x2",
      "transactionHash": "0x70a37f70e8211283bbed8b272388e99fbb2716446f5b4c3c35114ac410d6c279",
      "transactionIndex": "0x1d",
      "blockHash": "0xe48db051319ace73688c7bf2a83509a447e3595af81485f6932728ab0bb2a200",
      "blockNumber": "0xc84bd2",
      "gasUsed": "0x752e5",
      "effectiveGasPrice": "0xa34c5eb",
      "from": "0x16760803046ffa4d05878333b0953bbddc0c20cb",
      "to": null,
      "contractAddress": "0xc5325139aa7201bf207fa2b773aaed3034f4a23a",
      "l1Fee": "0x7183c9f8f73",
      "l1GasPrice": "0x35fca79ddd",
      "l1GasUsed": "0x775c"
    },
    {
      "status": "0x1",
      "cumulativeGasUsed": "0x5272ae",
      "logs": [
        {
          "address": "0x5b5dee44552546ecea05edea01dcd7be7aa6144a",
          "topics": [
            "0xddf252ad1be2c89b69c2b068fc378daa952ba7f163c4a11628f55a4df523b3ef",
            "0x00000000000000000000000016760803046ffa4d05878333b0953bbddc0c20cb",
            "0x000000000000000000000000c5325139aa7201bf207fa2b773aaed3034f4a23a"
          ],
          "data": "0x00000000000000000000000000000000000000000089dd0a1f42fcf0b3cc0000",
          "blockHash": "0x6ba3960e9aa20125446d3dbd3daffa9294dc47530a210caeba9ef851f99a4ea4",
          "blockNumber": "0xc84bd3",
          "transactionHash": "0x4a7dfe5ee1862ac95e154c0f9f27683c90dc56a2490371ac16df70f21782a0d4",
          "transactionIndex": "0x29",
          "logIndex": "0x65",
          "removed": false
        }
      ],
      "logsBloom": "0x00000000000000000000000000000000000000000000000000000000000000000000000000000000000000000000000000000000000000000000000000000000000100000000000000000408000000000000000000000000000000008000000000000000000000000000000000000000000000000000000000000010000000000000002000000000000000000000000000000000008000000000000000004000000000000000000000000000000000000001000000000000000000000000000000000002000000000000008000000000000000000000000000000000000000000000000000000000000000000000800000000000000000000000000000000000",
      "type": "0x2",
      "transactionHash": "0x4a7dfe5ee1862ac95e154c0f9f27683c90dc56a2490371ac16df70f21782a0d4",
      "transactionIndex": "0x29",
      "blockHash": "0x6ba3960e9aa20125446d3dbd3daffa9294dc47530a210caeba9ef851f99a4ea4",
      "blockNumber": "0xc84bd3",
      "gasUsed": "0xb5ce",
      "effectiveGasPrice": "0xa331d0c",
      "from": "0x16760803046ffa4d05878333b0953bbddc0c20cb",
      "to": "0x5b5dee44552546ecea05edea01dcd7be7aa6144a",
      "contractAddress": null,
      "l1Fee": "0x932c27bd3d",
      "l1GasPrice": "0x35fca79ddd",
      "l1GasUsed": "0x9ac"
    }
  ],
  "libraries": [],
  "pending": [],
  "returns": {},
  "timestamp": 1713042590,
  "chain": 8453,
  "commit": "7009e53"
}