{
  "transactions": [
    {
      "hash": "0xe3be3255545dcd397b261ea634b4da02efd7ccc9773be2ec128546c550092f51",
      "transactionType": "CREATE",
      "contractName": "Airdropper",
      "contractAddress": "0xf032240A412A6044853Aa5CA2E36dc9fE99B5FB2",
      "function": null,
      "arguments": [
        "0x9109094ed51161cbd1236594a64ae8febcc93add1bb8406b0ac78b51457b2889",
        "0x5B5dee44552546ECEA05EDeA01DCD7Be7aa6144A"
      ],
      "transaction": {
        "type": "0x02",
        "from": "0x16760803046ffa4d05878333b0953bbddc0c20cb",
        "gas": "0x8a61f",
        "value": "0x0",
        "data": "0x608060405234801561001057600080fd5b5060405161068538038061068583398101604081905261002f9161009a565b600080546001600160a01b031916339081178255604051909182917f8be0079c531659141344cd1fd0a4f28419497f9722a3daafe3b4186f6b6457e0908290a350600191909155600280546001600160a01b0319166001600160a01b039092169190911790556100d7565b600080604083850312156100ad57600080fd5b825160208401519092506001600160a01b03811681146100cc57600080fd5b809150509250929050565b61059f806100e66000396000f3fe608060405234801561001057600080fd5b506004361061007d5760003560e01c806373b2e80e1161005b57806373b2e80e146100c65780638da5cb5b146100f9578063c85654c414610124578063f2fde38b1461013757600080fd5b80632eb4a7ab146100825780632f52ebb71461009e57806351cff8d9146100b3575b600080fd5b61008b60015481565b6040519081526020015b60405180910390f35b6100b16100ac36600461047f565b61014a565b005b6100b16100c13660046104fe565b6101d0565b6100e96100d43660046104fe565b60036020526000908152604090205460ff1681565b6040519015158152602001610095565b60005461010c906001600160a01b031681565b6040516001600160a01b039091168152602001610095565b60025461010c906001600160a01b031681565b6100b16101453660046104fe565b610307565b61015583838361039b565b60025460405163a9059cbb60e01b8152336004820152602481018590526001600160a01b039091169063a9059cbb906044016020604051808303816000875af11580156101a6573d6000803e3d6000fd5b505050506040513d601f19601f820116820180604052508101906101ca919061052e565b50505050565b6000546001600160a01b0316331461021e5760405162461bcd60e51b815260206004820152600c60248201526b15539055551213d49256915160a21b60448201526064015b60405180910390fd5b6002546040516370a0823160e01b81523060048201526001600160a01b039091169063a9059cbb90839083906370a0823190602401602060405180830381865afa158015610270573d6000803e3d6000fd5b505050506040513d601f19601f820116820180604052508101906102949190610550565b6040516001600160e01b031960e085901b1681526001600160a01b03909216600483015260248201526044016020604051808303816000875af11580156102df573d6000803e3d6000fd5b505050506040513d601f19601f82011682018060405250810190610303919061052e565b5050565b6000546001600160a01b031633146103505760405162461bcd60e51b815260206004820152600c60248201526b15539055551213d49256915160a21b6044820152606401610215565b600080546001600160a01b0319166001600160a01b0383169081178255604051909133917f8be0079c531659141344cd1fd0a4f28419497f9722a3daafe3b4186f6b6457e09190a350565b604080513360208201529081018490526000906060016040516020818303038152906040528051906020012090506103d7838360015484610445565b6103f4576040516309bde33960e01b815260040160405180910390fd5b3360009081526003602052604090205460ff161561042557604051632fb8f41360e21b815260040160405180910390fd5b5050336000908152600360205260409020805460ff191660011790555050565b60008315610477578360051b8501855b803580851160051b948552602094851852604060002093018181106104555750505b501492915050565b60008060006040848603121561049457600080fd5b83359250602084013567ffffffffffffffff808211156104b357600080fd5b818601915086601f8301126104c757600080fd5b8135818111156104d657600080fd5b8760208260051b85010111156104eb57600080fd5b6020830194508093505050509250925092565b60006020828403121561051057600080fd5b81356001600160a01b038116811461052757600080fd5b9392505050565b60006020828403121561054057600080fd5b8151801515811461052757600080fd5b60006020828403121561056257600080fd5b505191905056fea26469706673582212206e6a6dee1033aabf3c1f5eeff3249236edb6085c951c8d820785d89a37a04a5464736f6c634300081700339109094ed51161cbd1236594a64ae8febcc93add1bb8406b0ac78b51457b28890000000000000000000000005b5dee44552546ecea05edea01dcd7be7aa6144a",
        "nonce": "0x8",
        "accessList": []
      },
      "additionalContracts": [],
      "isFixedGasLimit": false
    },
    {
      "hash": "0xb35ce24a07e7b856cb95d268698ecf8305da901d46f4f781b22bab23d77833aa",
      "transactionType": "CALL",
      "contractName": null,
      "contractAddress": "0x5B5dee44552546ECEA05EDeA01DCD7Be7aa6144A",
      "function": "transfer(address,uint256)",
      "arguments": [
        "0xf032240A412A6044853Aa5CA2E36dc9fE99B5FB2",
        "250000000000000000000000000"
      ],
      "transaction": {
        "type": "0x02",
        "from": "0x16760803046ffa4d05878333b0953bbddc0c20cb",
        "to": "0x5b5dee44552546ecea05edea01dcd7be7aa6144a",
        "gas": "0x1253d",
        "value": "0x0",
        "data": "0xa9059cbb000000000000000000000000f032240a412a6044853aa5ca2e36dc9fe99b5fb2000000000000000000000000000000000000000000cecb8f27f4200f3a000000",
        "nonce": "0x9",
        "accessList": []
      },
      "additionalContracts": [],
      "isFixedGasLimit": false
    }
  ],
  "receipts": [
    {
      "transactionHash": "0xe3be3255545dcd397b261ea634b4da02efd7ccc9773be2ec128546c550092f51",
      "transactionIndex": "0x0",
      "blockHash": "0x88a454d066b35f87cc7f292c6c7c768574fdfa7c307669928c2183764e20433d",
      "blockNumber": "0x9f8468",
      "from": "0x16760803046fFa4D05878333B0953bBDDc0C20Cb",
      "to": null,
      "cumulativeGasUsed": "0x6a79a",
      "gasUsed": "0x6a79a",
      "contractAddress": "0xf032240A412A6044853Aa5CA2E36dc9fE99B5FB2",
      "logs": [
        {
          "address": "0xf032240A412A6044853Aa5CA2E36dc9fE99B5FB2",
          "topics": [
            "0x8be0079c531659141344cd1fd0a4f28419497f9722a3daafe3b4186f6b6457e0",
            "0x0000000000000000000000000000000000000000000000000000000000000000",
            "0x00000000000000000000000016760803046ffa4d05878333b0953bbddc0c20cb"
          ],
          "data": "0x",
          "blockHash": "0x88a454d066b35f87cc7f292c6c7c768574fdfa7c307669928c2183764e20433d",
          "blockNumber": "0x9f8468",
          "transactionHash": "0xe3be3255545dcd397b261ea634b4da02efd7ccc9773be2ec128546c550092f51",
          "transactionIndex": "0x0",
          "logIndex": "0x0",
          "removed": false
        }
      ],
      "status": "0x1",
      "logsBloom": "0x00000000000000000000000000000000000000000000000000800000000000000000000000000000000000000000000000000000000000000000000000000000000000000000000000000400000000000001000000000000000000008200000000000000020000000000000000000800000000000000000000000000000000400000000000000000000000000000000000000000008008000000000000000000000000000000000000000000000000000000000000000000000000000000000000000000010000000000000000000000000000000000000000000000000020000000000000000000000000000000000000000000000000000000000000000000",
      "type": "0x2",
      "effectiveGasPrice": "0xb2d05ef6"
    },
    {
      "transactionHash": "0xb35ce24a07e7b856cb95d268698ecf8305da901d46f4f781b22bab23d77833aa",
      "transactionIndex": "0x0",
      "blockHash": "0xbdb369fbf7f759b9a7cb7f0138b9f9804321acb3c8c08740471e574f4bd9e9b0",
      "blockNumber": "0x9f8469",
      "from": "0x16760803046fFa4D05878333B0953bBDDc0C20Cb",
      "to": "0x5B5dee44552546ECEA05EDeA01DCD7Be7aa6144A",
      "cumulativeGasUsed": "0xc882",
      "gasUsed": "0xc882",
      "contractAddress": null,
      "logs": [
        {
          "address": "0x5B5dee44552546ECEA05EDeA01DCD7Be7aa6144A",
          "topics": [
            "0xddf252ad1be2c89b69c2b068fc378daa952ba7f163c4a11628f55a4df523b3ef",
            "0x00000000000000000000000016760803046ffa4d05878333b0953bbddc0c20cb",
            "0x000000000000000000000000f032240a412a6044853aa5ca2e36dc9fe99b5fb2"
          ],
          "data": "0x000000000000000000000000000000000000000000cecb8f27f4200f3a000000",
          "blockHash": "0xbdb369fbf7f759b9a7cb7f0138b9f9804321acb3c8c08740471e574f4bd9e9b0",
          "blockNumber": "0x9f8469",
          "transactionHash": "0xb35ce24a07e7b856cb95d268698ecf8305da901d46f4f781b22bab23d77833aa",
          "transactionIndex": "0x0",
          "logIndex": "0x0",
          "removed": false
        }
      ],
      "status": "0x1",
      "logsBloom": "0x00000000000000000000000000000000000000000000000000000000000000000000000000000000000000000000000000000000000000000000000000000000000100000000000000000408000000000000000000000000000000008000000000000000000000000000000000000000000000000000000000000010000000000000000000000000000000000000000100000000008000000000000000000000000000000000000000000000000000000001000000000000000000000000000000000002100000000000008000000000000000000000000000000000000000010000000000000000000000000000000000000000000000000000000000000000",
      "type": "0x2",
      "effectiveGasPrice": "0xb2d05ed9"
    }
  ],
  "libraries": [],
  "pending": [],
  "returns": {},
  "timestamp": 1707697597,
  "chain": 8453,
  "multi": false,
  "commit": "6153c70"
}