{
  "transactions": [
    {
      "hash": "0xd53e01f5e3b7bf313e608c5f274be339c82c5938f12a6dfda4803e46c1d0e52b",
      "transactionType": "CALL",
      "contractName": null,
      "contractAddress": "0x56b10bf5e47c8262569f3119dfb4be457795c8a2",
      "function": "initFloaty(bytes,address,uint256)",
      "arguments": [
        "0xf09f91bd",
        "0xbb5D04c40Fa063FAF213c4E0B8086655164269Ef",
        "10000000000000000000"
      ],
      "transaction": {
        "from": "0x16760803046ffa4d05878333b0953bbddc0c20cb",
        "to": "0x56b10bf5e47c8262569f3119dfb4be457795c8a2",
        "gas": "0x10d6f",
        "value": "0x0",
        "input": "0x5974fd010000000000000000000000000000000000000000000000000000000000000060000000000000000000000000bb5d04c40fa063faf213c4e0b8086655164269ef0000000000000000000000000000000000000000000000008ac7230489e800000000000000000000000000000000000000000000000000000000000000000004f09f91bd00000000000000000000000000000000000000000000000000000000",
        "nonce": "0xfa",
        "chainId": "0x2105",
        "accessList": null,
        "type": null
      },
      "additionalContracts": [],
      "isFixedGasLimit": false
    }
  ],
  "receipts": [
    {
      "status": "0x1",
      "cumulativeGasUsed": "0x48622d",
      "logs": [
        {
          "address": "0x56b10bf5e47c8262569f3119dfb4be457795c8a2",
          "topics": [
            "0x9d010941ff99f045330675d426e0ef9af37e9ee6aed43fec1376c3f2acd56106"
          ],
          "data": "0x0000000000000000000000000000000000000000000000000000000000000060000000000000000000000000bb5d04c40fa063faf213c4e0b8086655164269ef0000000000000000000000000000000000000000000000008ac7230489e800000000000000000000000000000000000000000000000000000000000000000004f09f91bd00000000000000000000000000000000000000000000000000000000",
          "blockHash": "0x82ecadbf11ce11e73345372325ae18196a4d7080524d15abf50df323f79ed6f0",
          "blockNumber": "0xc78ca5",
          "transactionHash": "0xd53e01f5e3b7bf313e608c5f274be339c82c5938f12a6dfda4803e46c1d0e52b",
          "transactionIndex": "0x22",
          "logIndex": "0x7e",
          "removed": false
        }
      ],
      "logsBloom": "0x00000000000000000000000000000008000000000000000000000000000000000000000000000000000000000000000000000000000000000000000000000000000000001000000000000000000000000000000000000000080000000000000000000000000000000000000000000000000000000000000000000000000000000000000000000000000000000000000000000000000000000000000000000000000000000000000000000000000000000000000000000000000000000000000000400000000000000000000100000000000000000000000020000000000000000000000000000000000000000000000000000000000000000000000000000000",
      "type": "0x2",
      "transactionHash": "0xd53e01f5e3b7bf313e608c5f274be339c82c5938f12a6dfda4803e46c1d0e52b",
      "transactionIndex": "0x22",
      "blockHash": "0x82ecadbf11ce11e73345372325ae18196a4d7080524d15abf50df323f79ed6f0",
      "blockNumber": "0xc78ca5",
      "gasUsed": "0xb83b",
      "effectiveGasPrice": "0x168da692",
      "from": "0x16760803046ffa4d05878333b0953bbddc0c20cb",
      "to": "0x56b10bf5e47c8262569f3119dfb4be457795c8a2",
      "contractAddress": null,
      "l1Fee": "0x20bfb5bac1",
      "l1GasPrice": "0xa41bc351e",
      "l1GasUsed": "0xb54"
    }
  ],
  "libraries": [],
  "pending": [],
  "returns": {},
  "timestamp": 1712944690,
  "chain": 8453,
  "commit": "060a516"
}