{
  "transactions": [
    {
      "hash": "0x3450335b61d3951a017820162d81bef519726561876033acdfee010f68085864",
      "transactionType": "CALL",
      "contractName": null,
      "contractAddress": "0x56b10bf5e47c8262569f3119dfb4be457795c8a2",
      "function": "initFloaty(bytes,address,uint256)",
      "arguments": [
        "0xe28c90e297a82de297a8",
        "0x13741C5dF9aB03E7Aa9Fb3Bf1f714551dD5A5F8a",
        "1000000000000000000000000"
      ],
      "transaction": {
        "from": "0x16760803046ffa4d05878333b0953bbddc0c20cb",
        "to": "0x56b10bf5e47c8262569f3119dfb4be457795c8a2",
        "gas": "0x23206",
        "value": "0x0",
        "input": "0x5974fd01000000000000000000000000000000000000000000000000000000000000006000000000000000000000000013741c5df9ab03e7aa9fb3bf1f714551dd5a5f8a00000000000000000000000000000000000000000000d3c21bcecceda1000000000000000000000000000000000000000000000000000000000000000000000ae28c90e297a82de297a800000000000000000000000000000000000000000000",
        "nonce": "0x16a",
        "chainId": "0x2105",
        "accessList": null,
        "type": null
      },
      "additionalContracts": [],
      "isFixedGasLimit": false
    }
  ],
  "receipts": [
    {
      "status": "0x1",
      "cumulativeGasUsed": "0x668def",
      "logs": [
        {
          "address": "0x56b10bf5e47c8262569f3119dfb4be457795c8a2",
          "topics": [
            "0x9d010941ff99f045330675d426e0ef9af37e9ee6aed43fec1376c3f2acd56106"
          ],
          "data": "0x000000000000000000000000000000000000000000000000000000000000006000000000000000000000000013741c5df9ab03e7aa9fb3bf1f714551dd5a5f8a00000000000000000000000000000000000000000000d3c21bcecceda1000000000000000000000000000000000000000000000000000000000000000000000ae28c90e297a82de297a800000000000000000000000000000000000000000000",
          "blockHash": "0xbe480ccd3994171174faea003795687f125220f4748cbc8e573a6dfbaee2c000",
          "blockNumber": "0xd57b7e",
          "transactionHash": "0x3450335b61d3951a017820162d81bef519726561876033acdfee010f68085864",
          "transactionIndex": "0x32",
          "logIndex": "0xd8",
          "removed": false
        }
      ],
      "logsBloom": "0x00000000000000000000000000000008000000000000000000000000000000000000000000000000000000000000000000000000000000000000000000000000000000001000000000000000000000000000000000000000080000000000000000000000000000000000000000000000000000000000000000000000000000000000000000000000000000000000000000000000000000000000000000000000000000000000000000000000000000000000000000000000000000000000000000400000000000000000000100000000000000000000000020000000000000000000000000000000000000000000000000000000000000000000000000000000",
      "type": "0x2",
      "transactionHash": "0x3450335b61d3951a017820162d81bef519726561876033acdfee010f68085864",
      "transactionIndex": "0x32",
      "blockHash": "0xbe480ccd3994171174faea003795687f125220f4748cbc8e573a6dfbaee2c000",
      "blockNumber": "0xd57b7e",
      "gasUsed": "0x196e6",
      "effectiveGasPrice": "0x11193a0e",
      "from": "0x16760803046ffa4d05878333b0953bbddc0c20cb",
      "to": "0x56b10bf5e47c8262569f3119dfb4be457795c8a2",
      "contractAddress": null,
      "l1Fee": "0x4d68f6cf2",
      "l1GasPrice": "0x1757c8804",
      "l1GasUsed": "0xbc4"
    }
  ],
  "libraries": [],
  "pending": [],
  "returns": {},
  "timestamp": 1714770917,
  "chain": 8453,
  "commit": "1755dcb"
}