{
  "transactions": [
    {
      "hash": "0x29f1c464868b69a15cbe21c31c66784c45ad4aa8e719833d720b416b1486e09d",
      "transactionType": "CALL",
      "contractName": null,
      "contractAddress": "0x56b10bf5e47c8262569f3119dfb4be457795c8a2",
      "function": "initFloaty(bytes,address,uint256)",
      "arguments": [
        "0xf09f92a8",
        "0xd7D919Ea0c33A97ad6e7BD4F510498e2ec98Cb78",
        "10000000000000000000000"
      ],
      "transaction": {
        "from": "0x16760803046ffa4d05878333b0953bbddc0c20cb",
        "to": "0x56b10bf5e47c8262569f3119dfb4be457795c8a2",
        "gas": "0xfeb2",
        "value": "0x0",
        "input": "0x5974fd010000000000000000000000000000000000000000000000000000000000000060000000000000000000000000d7d919ea0c33a97ad6e7bd4f510498e2ec98cb7800000000000000000000000000000000000000000000021e19e0c9bab24000000000000000000000000000000000000000000000000000000000000000000004f09f92a800000000000000000000000000000000000000000000000000000000",
        "nonce": "0x159",
        "chainId": "0x2105",
        "accessList": null,
        "type": null
      },
      "additionalContracts": [],
      "isFixedGasLimit": false
    }
  ],
  "receipts": [
    {
      "status": "0x1",
      "cumulativeGasUsed": "0x78a64d",
      "logs": [
        {
          "address": "0x56b10bf5e47c8262569f3119dfb4be457795c8a2",
          "topics": [
            "0x9d010941ff99f045330675d426e0ef9af37e9ee6aed43fec1376c3f2acd56106"
          ],
          "data": "0x0000000000000000000000000000000000000000000000000000000000000060000000000000000000000000d7d919ea0c33a97ad6e7bd4f510498e2ec98cb7800000000000000000000000000000000000000000000021e19e0c9bab24000000000000000000000000000000000000000000000000000000000000000000004f09f92a800000000000000000000000000000000000000000000000000000000",
          "blockHash": "0xc1a6700a93244d8c873493935235d9f8b7a095a57ad402d6c3cb4ecfa7047b8b",
          "blockNumber": "0xd06511",
          "transactionHash": "0x29f1c464868b69a15cbe21c31c66784c45ad4aa8e719833d720b416b1486e09d",
          "transactionIndex": "0x33",
          "logIndex": "0xa0",
          "removed": false
        }
      ],
      "logsBloom": "0x00000000000000000000000000000008000000000000000000000000000000000000000000000000000000000000000000000000000000000000000000000000000000001000000000000000000000000000000000000000080000000000000000000000000000000000000000000000000000000000000000000000000000000000000000000000000000000000000000000000000000000000000000000000000000000000000000000000000000000000000000000000000000000000000000400000000000000000000100000000000000000000000020000000000000000000000000000000000000000000000000000000000000000000000000000000",
      "type": "0x2",
      "transactionHash": "0x29f1c464868b69a15cbe21c31c66784c45ad4aa8e719833d720b416b1486e09d",
      "transactionIndex": "0x33",
      "blockHash": "0xc1a6700a93244d8c873493935235d9f8b7a095a57ad402d6c3cb4ecfa7047b8b",
      "blockNumber": "0xd06511",
      "gasUsed": "0xb866",
      "effectiveGasPrice": "0x4aaec35",
      "from": "0x16760803046ffa4d05878333b0953bbddc0c20cb",
      "to": "0x56b10bf5e47c8262569f3119dfb4be457795c8a2",
      "contractAddress": null,
      "l1Fee": "0x40b401f31",
      "l1GasPrice": "0x1404270bc",
      "l1GasUsed": "0xb78"
    }
  ],
  "libraries": [],
  "pending": [],
  "returns": {},
  "timestamp": 1714104074,
  "chain": 8453,
  "commit": "7009e53"
}