{
  "transactions": [
    {
      "hash": "0x7e9d7a7fbbeb12896fd65e6e415a84b68293b6f5f23219ca11ac26a0f5b8d1ca",
      "transactionType": "CALL",
      "contractName": null,
      "contractAddress": "0x56b10bf5e47c8262569f3119dfb4be457795c8a2",
      "function": "initFloaty(bytes,address,uint256)",
      "arguments": [
        "0xf09fa491",
        "0x833589fCD6eDb6E08f4c7C32D4f71b54bdA02913",
        "1000000"
      ],
      "transaction": {
        "from": "0x16760803046ffa4d05878333b0953bbddc0c20cb",
        "to": "0x56b10bf5e47c8262569f3119dfb4be457795c8a2",
        "gas": "0x23160",
        "value": "0x0",
        "input": "0x5974fd010000000000000000000000000000000000000000000000000000000000000060000000000000000000000000833589fcd6edb6e08f4c7c32d4f71b54bda0291300000000000000000000000000000000000000000000000000000000000f42400000000000000000000000000000000000000000000000000000000000000004f09fa49100000000000000000000000000000000000000000000000000000000",
        "nonce": "0x153",
        "chainId": "0x2105",
        "accessList": null,
        "type": null
      },
      "additionalContracts": [],
      "isFixedGasLimit": false
    }
  ],
  "receipts": [
    {
      "status": "0x1",
      "cumulativeGasUsed": "0x394ecc",
      "logs": [
        {
          "address": "0x56b10bf5e47c8262569f3119dfb4be457795c8a2",
          "topics": [
            "0x9d010941ff99f045330675d426e0ef9af37e9ee6aed43fec1376c3f2acd56106"
          ],
          "data": "0x0000000000000000000000000000000000000000000000000000000000000060000000000000000000000000833589fcd6edb6e08f4c7c32d4f71b54bda0291300000000000000000000000000000000000000000000000000000000000f42400000000000000000000000000000000000000000000000000000000000000004f09fa49100000000000000000000000000000000000000000000000000000000",
          "blockHash": "0x2086a87e7a55e4dd33f5d0e81c867e9c81bb3e29871f63210b0be5c675aa729d",
          "blockNumber": "0xcf991d",
          "transactionHash": "0x7e9d7a7fbbeb12896fd65e6e415a84b68293b6f5f23219ca11ac26a0f5b8d1ca",
          "transactionIndex": "0x19",
          "logIndex": "0x54",
          "removed": false
        }
      ],
      "logsBloom": "0x00000000000000000000000000000008000000000000000000000000000000000000000000000000000000000000000000000000000000000000000000000000000000001000000000000000000000000000000000000000080000000000000000000000000000000000000000000000000000000000000000000000000000000000000000000000000000000000000000000000000000000000000000000000000000000000000000000000000000000000000000000000000000000000000000400000000000000000000100000000000000000000000020000000000000000000000000000000000000000000000000000000000000000000000000000000",
      "type": "0x2",
      "transactionHash": "0x7e9d7a7fbbeb12896fd65e6e415a84b68293b6f5f23219ca11ac26a0f5b8d1ca",
      "transactionIndex": "0x19",
      "blockHash": "0x2086a87e7a55e4dd33f5d0e81c867e9c81bb3e29871f63210b0be5c675aa729d",
      "blockNumber": "0xcf991d",
      "gasUsed": "0x1966e",
      "effectiveGasPrice": "0x2fcb23c",
      "from": "0x16760803046ffa4d05878333b0953bbddc0c20cb",
      "to": "0x56b10bf5e47c8262569f3119dfb4be457795c8a2",
      "contractAddress": null,
      "l1Fee": "0x509e18e75",
      "l1GasPrice": "0x1951a08d2",
      "l1GasUsed": "0xb4c"
    }
  ],
  "libraries": [],
  "pending": [],
  "returns": {},
  "timestamp": 1713999651,
  "chain": 8453,
  "commit": "7009e53"
}