{
  "transactions": [
    {
      "hash": "0x1fc326e5eb6d844590b3695d52a3f57cb88da097593388707578d0c26071381a",
      "transactionType": "CALL",
      "contractName": null,
      "contractAddress": "0x56b10bf5e47c8262569f3119dfb4be457795c8a2",
      "function": "initFloaty(bytes,address,uint256)",
      "arguments": [
        "0xf09f87aff09f87b5",
        "0xeF6dd3F0bE6f599e7BcA38b47dB638D5a749CF9C",
        "10000000000000000000"
      ],
      "transaction": {
        "from": "0x16760803046ffa4d05878333b0953bbddc0c20cb",
        "to": "0x56b10bf5e47c8262569f3119dfb4be457795c8a2",
        "gas": "0x252e1",
        "value": "0x0",
        "input": "0x5974fd010000000000000000000000000000000000000000000000000000000000000060000000000000000000000000ef6dd3f0be6f599e7bca38b47db638d5a749cf9c0000000000000000000000000000000000000000000000008ac7230489e800000000000000000000000000000000000000000000000000000000000000000008f09f87aff09f87b5000000000000000000000000000000000000000000000000",
        "nonce": "0x17b",
        "chainId": "0x2105",
        "accessList": null,
        "type": null
      },
      "additionalContracts": [],
      "isFixedGasLimit": false
    },
    {
      "hash": "0xec1ffa849161ed9b48b1efc6c8e653b57fb3c998cd98903725bd912d6e76ad0d",
      "transactionType": "CALL",
      "contractName": null,
      "contractAddress": "0x56b10bf5e47c8262569f3119dfb4be457795c8a2",
      "function": "initFloaty(bytes,address,uint256)",
      "arguments": [
        "0xf09f8d94",
        "0x6776caCcFDCD0dFD5A38cb1D0B3b39A4Ca9283cE",
        "69000000000000000000"
      ],
      "transaction": {
        "from": "0x16760803046ffa4d05878333b0953bbddc0c20cb",
        "to": "0x56b10bf5e47c8262569f3119dfb4be457795c8a2",
        "gas": "0x231a2",
        "value": "0x0",
        "input": "0x5974fd0100000000000000000000000000000000000000000000000000000000000000600000000000000000000000006776caccfdcd0dfd5a38cb1d0b3b39a4ca9283ce000000000000000000000000000000000000000000000003bd913e6c1df400000000000000000000000000000000000000000000000000000000000000000004f09f8d9400000000000000000000000000000000000000000000000000000000",
        "nonce": "0x17c",
        "chainId": "0x2105",
        "accessList": null,
        "type": null
      },
      "additionalContracts": [],
      "isFixedGasLimit": false
    }
  ],
  "receipts": [
    {
      "status": "0x1",
      "cumulativeGasUsed": "0xa3d6c2",
      "logs": [
        {
          "address": "0x56b10bf5e47c8262569f3119dfb4be457795c8a2",
          "topics": [
            "0x9d010941ff99f045330675d426e0ef9af37e9ee6aed43fec1376c3f2acd56106"
          ],
          "data": "0x0000000000000000000000000000000000000000000000000000000000000060000000000000000000000000ef6dd3f0be6f599e7bca38b47db638d5a749cf9c0000000000000000000000000000000000000000000000008ac7230489e800000000000000000000000000000000000000000000000000000000000000000008f09f87aff09f87b5000000000000000000000000000000000000000000000000",
          "blockHash": "0x9f6ecc9a05b16d2df338dd1e300d46a63392d53577e7423c110164cc25248061",
          "blockNumber": "0xdc4c26",
          "transactionHash": "0x1fc326e5eb6d844590b3695d52a3f57cb88da097593388707578d0c26071381a",
          "transactionIndex": "0x20",
          "logIndex": "0xe0",
          "removed": false
        }
      ],
      "logsBloom": "0x00000000000000000000000000000008000000000000000000000000000000000000000000000000000000000000000000000000000000000000000000000000000000001000000000000000000000000000000000000000080000000000000000000000000000000000000000000000000000000000000000000000000000000000000000000000000000000000000000000000000000000000000000000000000000000000000000000000000000000000000000000000000000000000000000400000000000000000000100000000000000000000000020000000000000000000000000000000000000000000000000000000000000000000000000000000",
      "type": "0x2",
      "transactionHash": "0x1fc326e5eb6d844590b3695d52a3f57cb88da097593388707578d0c26071381a",
      "transactionIndex": "0x20",
      "blockHash": "0x9f6ecc9a05b16d2df338dd1e300d46a63392d53577e7423c110164cc25248061",
      "blockNumber": "0xdc4c26",
      "gasUsed": "0x196c2",
      "effectiveGasPrice": "0x2470b7f",
      "from": "0x16760803046ffa4d05878333b0953bbddc0c20cb",
      "to": "0x56b10bf5e47c8262569f3119dfb4be457795c8a2",
      "contractAddress": null,
      "l1Fee": "0x391a8e5cb",
      "l1GasPrice": "0x116d88c36",
      "l1GasUsed": "0xba0"
    },
    {
      "status": "0x1",
      "cumulativeGasUsed": "0xa56d60",
      "logs": [
        {
          "address": "0x56b10bf5e47c8262569f3119dfb4be457795c8a2",
          "topics": [
            "0x9d010941ff99f045330675d426e0ef9af37e9ee6aed43fec1376c3f2acd56106"
          ],
          "data": "0x00000000000000000000000000000000000000000000000000000000000000600000000000000000000000006776caccfdcd0dfd5a38cb1d0b3b39a4ca9283ce000000000000000000000000000000000000000000000003bd913e6c1df400000000000000000000000000000000000000000000000000000000000000000004f09f8d9400000000000000000000000000000000000000000000000000000000",
          "blockHash": "0x9f6ecc9a05b16d2df338dd1e300d46a63392d53577e7423c110164cc25248061",
          "blockNumber": "0xdc4c26",
          "transactionHash": "0xec1ffa849161ed9b48b1efc6c8e653b57fb3c998cd98903725bd912d6e76ad0d",
          "transactionIndex": "0x21",
          "logIndex": "0xe1",
          "removed": false
        }
      ],
      "logsBloom": "0x00000000000000000000000000000008000000000000000000000000000000000000000000000000000000000000000000000000000000000000000000000000000000001000000000000000000000000000000000000000080000000000000000000000000000000000000000000000000000000000000000000000000000000000000000000000000000000000000000000000000000000000000000000000000000000000000000000000000000000000000000000000000000000000000000400000000000000000000100000000000000000000000020000000000000000000000000000000000000000000000000000000000000000000000000000000",
      "type": "0x2",
      "transactionHash": "0xec1ffa849161ed9b48b1efc6c8e653b57fb3c998cd98903725bd912d6e76ad0d",
      "transactionIndex": "0x21",
      "blockHash": "0x9f6ecc9a05b16d2df338dd1e300d46a63392d53577e7423c110164cc25248061",
      "blockNumber": "0xdc4c26",
      "gasUsed": "0x1969e",
      "effectiveGasPrice": "0x2470b7f",
      "from": "0x16760803046ffa4d05878333b0953bbddc0c20cb",
      "to": "0x56b10bf5e47c8262569f3119dfb4be457795c8a2",
      "contractAddress": null,
      "l1Fee": "0x3869b7fea",
      "l1GasPrice": "0x116d88c36",
      "l1GasUsed": "0xb7c"
    }
  ],
  "libraries": [],
  "pending": [],
  "returns": {},
  "timestamp": 1715664181,
  "chain": 8453,
  "commit": "637d4ae"
}