{
  "transactions": [
    {
      "hash": "0xb2e27b146552dbaed3117368d4fa44988b00007a2b3c4022c7df47c40da69a23",
      "transactionType": "CALL",
      "contractName": null,
      "contractAddress": "0x56B10bf5E47C8262569F3119Dfb4bE457795C8a2",
      "function": "initFloaty(bytes,address,uint256)",
      "arguments": [
        "0xf09f8d95",
        "0x40468be13c4388D2AB68a09F56973fa95DB5bca0",
        "10000000000000000000"
      ],
      "transaction": {
        "type": "0x02",
        "from": "0x16760803046ffa4d05878333b0953bbddc0c20cb",
        "to": "0x56b10bf5e47c8262569f3119dfb4be457795c8a2",
        "gas": "0x23177",
        "value": "0x0",
        "data": "0x5974fd01000000000000000000000000000000000000000000000000000000000000006000000000000000000000000040468be13c4388d2ab68a09f56973fa95db5bca00000000000000000000000000000000000000000000000008ac7230489e800000000000000000000000000000000000000000000000000000000000000000004f09f8d9500000000000000000000000000000000000000000000000000000000",
        "nonce": "0x7f",
        "accessList": []
      },
      "additionalContracts": [],
      "isFixedGasLimit": false
    },
    {
      "hash": "0x66fd13fe126096cb51ce3ff0a2595d03fd750b48b2172dc1f7cf0f156e224c5c",
      "transactionType": "CALL",
      "contractName": null,
      "contractAddress": "0x56B10bf5E47C8262569F3119Dfb4bE457795C8a2",
      "function": "initFloaty(bytes,address,uint256)",
      "arguments": [
        "0xe28697efb88e",
        "0xBa5B9B2D2d06a9021EB3190ea5Fb0e02160839A4",
        "10000000000000000000"
      ],
      "transaction": {
        "type": "0x02",
        "from": "0x16760803046ffa4d05878333b0953bbddc0c20cb",
        "to": "0x56b10bf5e47c8262569f3119dfb4be457795c8a2",
        "gas": "0x23199",
        "value": "0x0",
        "data": "0x5974fd010000000000000000000000000000000000000000000000000000000000000060000000000000000000000000ba5b9b2d2d06a9021eb3190ea5fb0e02160839a40000000000000000000000000000000000000000000000008ac7230489e800000000000000000000000000000000000000000000000000000000000000000006e28697efb88e0000000000000000000000000000000000000000000000000000",
        "nonce": "0x80",
        "accessList": []
      },
      "additionalContracts": [],
      "isFixedGasLimit": false
    },
    {
      "hash": "0x9c4da72abbc4ce9298b9597d3996d280b43a5882c82903bb981eab337ffb5f41",
      "transactionType": "CALL",
      "contractName": null,
      "contractAddress": "0x56B10bf5E47C8262569F3119Dfb4bE457795C8a2",
      "function": "initFloaty(bytes,address,uint256)",
      "arguments": [
        "0xf09fa696",
        "0x469FdA1FB46Fcb4BeFc0D8B994B516bD28c87003",
        "100000000000000"
      ],
      "transaction": {
        "type": "0x02",
        "from": "0x16760803046ffa4d05878333b0953bbddc0c20cb",
        "to": "0x56b10bf5e47c8262569f3119dfb4be457795c8a2",
        "gas": "0x2526e",
        "value": "0x0",
        "data": "0x5974fd010000000000000000000000000000000000000000000000000000000000000060000000000000000000000000469fda1fb46fcb4befc0d8b994b516bd28c8700300000000000000000000000000000000000000000000000000005af3107a40000000000000000000000000000000000000000000000000000000000000000004f09fa69600000000000000000000000000000000000000000000000000000000",
        "nonce": "0x81",
        "accessList": []
      },
      "additionalContracts": [],
      "isFixedGasLimit": false
    }
  ],
  "receipts": [
    {
      "transactionHash": "0xb2e27b146552dbaed3117368d4fa44988b00007a2b3c4022c7df47c40da69a23",
      "transactionIndex": "0x8",
      "blockHash": "0x6f64f3c7149d709dcf4ce445f7aab02f492ce0961c56759e20057420f6929893",
      "blockNumber": "0xbbb6d7",
      "from": "0x16760803046fFa4D05878333B0953bBDDc0C20Cb",
      "to": "0x56B10bf5E47C8262569F3119Dfb4bE457795C8a2",
      "cumulativeGasUsed": "0x16e421",
      "gasUsed": "0x1967f",
      "contractAddress": null,
      "logs": [
        {
          "address": "0x56B10bf5E47C8262569F3119Dfb4bE457795C8a2",
          "topics": [
            "0x9d010941ff99f045330675d426e0ef9af37e9ee6aed43fec1376c3f2acd56106"
          ],
          "data": "0x000000000000000000000000000000000000000000000000000000000000006000000000000000000000000040468be13c4388d2ab68a09f56973fa95db5bca00000000000000000000000000000000000000000000000008ac7230489e800000000000000000000000000000000000000000000000000000000000000000004f09f8d9500000000000000000000000000000000000000000000000000000000",
          "blockHash": "0x6f64f3c7149d709dcf4ce445f7aab02f492ce0961c56759e20057420f6929893",
          "blockNumber": "0xbbb6d7",
          "transactionHash": "0xb2e27b146552dbaed3117368d4fa44988b00007a2b3c4022c7df47c40da69a23",
          "transactionIndex": "0x8",
          "logIndex": "0x2b",
          "removed": false
        }
      ],
      "status": "0x1",
      "logsBloom": "0x00000000000000000000000000000008000000000000000000000000000000000000000000000000000000000000000000000000000000000000000000000000000000001000000000000000000000000000000000000000080000000000000000000000000000000000000000000000000000000000000000000000000000000000000000000000000000000000000000000000000000000000000000000000000000000000000000000000000000000000000000000000000000000000000000400000000000000000000100000000000000000000000020000000000000000000000000000000000000000000000000000000000000000000000000000000",
      "type": "0x2",
      "effectiveGasPrice": "0xf2564b52"
    },
    {
      "transactionHash": "0x66fd13fe126096cb51ce3ff0a2595d03fd750b48b2172dc1f7cf0f156e224c5c",
      "transactionIndex": "0x9",
      "blockHash": "0x6f64f3c7149d709dcf4ce445f7aab02f492ce0961c56759e20057420f6929893",
      "blockNumber": "0xbbb6d7",
      "from": "0x16760803046fFa4D05878333B0953bBDDc0C20Cb",
      "to": "0x56B10bf5E47C8262569F3119Dfb4bE457795C8a2",
      "cumulativeGasUsed": "0x187ab8",
      "gasUsed": "0x19697",
      "contractAddress": null,
      "logs": [
        {
          "address": "0x56B10bf5E47C8262569F3119Dfb4bE457795C8a2",
          "topics": [
            "0x9d010941ff99f045330675d426e0ef9af37e9ee6aed43fec1376c3f2acd56106"
          ],
          "data": "0x0000000000000000000000000000000000000000000000000000000000000060000000000000000000000000ba5b9b2d2d06a9021eb3190ea5fb0e02160839a40000000000000000000000000000000000000000000000008ac7230489e800000000000000000000000000000000000000000000000000000000000000000006e28697efb88e0000000000000000000000000000000000000000000000000000",
          "blockHash": "0x6f64f3c7149d709dcf4ce445f7aab02f492ce0961c56759e20057420f6929893",
          "blockNumber": "0xbbb6d7",
          "transactionHash": "0x66fd13fe126096cb51ce3ff0a2595d03fd750b48b2172dc1f7cf0f156e224c5c",
          "transactionIndex": "0x9",
          "logIndex": "0x2c",
          "removed": false
        }
      ],
      "status": "0x1",
      "logsBloom": "0x00000000000000000000000000000008000000000000000000000000000000000000000000000000000000000000000000000000000000000000000000000000000000001000000000000000000000000000000000000000080000000000000000000000000000000000000000000000000000000000000000000000000000000000000000000000000000000000000000000000000000000000000000000000000000000000000000000000000000000000000000000000000000000000000000400000000000000000000100000000000000000000000020000000000000000000000000000000000000000000000000000000000000000000000000000000",
      "type": "0x2",
      "effectiveGasPrice": "0xf2564b52"
    },
    {
      "transactionHash": "0x9c4da72abbc4ce9298b9597d3996d280b43a5882c82903bb981eab337ffb5f41",
      "transactionIndex": "0xa",
      "blockHash": "0x6f64f3c7149d709dcf4ce445f7aab02f492ce0961c56759e20057420f6929893",
      "blockNumber": "0xbbb6d7",
      "from": "0x16760803046fFa4D05878333B0953bBDDc0C20Cb",
      "to": "0x56B10bf5E47C8262569F3119Dfb4bE457795C8a2",
      "cumulativeGasUsed": "0x1a112b",
      "gasUsed": "0x19673",
      "contractAddress": null,
      "logs": [
        {
          "address": "0x56B10bf5E47C8262569F3119Dfb4bE457795C8a2",
          "topics": [
            "0x9d010941ff99f045330675d426e0ef9af37e9ee6aed43fec1376c3f2acd56106"
          ],
          "data": "0x0000000000000000000000000000000000000000000000000000000000000060000000000000000000000000469fda1fb46fcb4befc0d8b994b516bd28c8700300000000000000000000000000000000000000000000000000005af3107a40000000000000000000000000000000000000000000000000000000000000000004f09fa69600000000000000000000000000000000000000000000000000000000",
          "blockHash": "0x6f64f3c7149d709dcf4ce445f7aab02f492ce0961c56759e20057420f6929893",
          "blockNumber": "0xbbb6d7",
          "transactionHash": "0x9c4da72abbc4ce9298b9597d3996d280b43a5882c82903bb981eab337ffb5f41",
          "transactionIndex": "0xa",
          "logIndex": "0x2d",
          "removed": false
        }
      ],
      "status": "0x1",
      "logsBloom": "0x00000000000000000000000000000008000000000000000000000000000000000000000000000000000000000000000000000000000000000000000000000000000000001000000000000000000000000000000000000000080000000000000000000000000000000000000000000000000000000000000000000000000000000000000000000000000000000000000000000000000000000000000000000000000000000000000000000000000000000000000000000000000000000000000000400000000000000000000100000000000000000000000020000000000000000000000000000000000000000000000000000000000000000000000000000000",
      "type": "0x2",
      "effectiveGasPrice": "0xf2564b52"
    }
  ],
  "libraries": [],
  "pending": [],
  "returns": {},
  "timestamp": 1711393431,
  "chain": 8453,
  "commit": "9f82b3d"
}