{
  "transactions": [
    {
      "hash": "0x069c2e9b6fa88d5220fa52548a9ec1923bd3b666b7f42ebd727c4c1e8062ab34",
      "transactionType": "CALL",
      "contractName": null,
      "contractAddress": "0x56b10bf5e47c8262569f3119dfb4be457795c8a2",
      "function": "initFloaty(bytes,address,uint256)",
      "arguments": [
        "0xf09fa7b1",
        "0x37f0c2915CeCC7e977183B8543Fc0864d03E064C",
        "1000000000000000000"
      ],
      "transaction": {
        "from": "0x16760803046ffa4d05878333b0953bbddc0c20cb",
        "to": "0x56b10bf5e47c8262569f3119dfb4be457795c8a2",
        "gas": "0x2529b",
        "value": "0x0",
        "input": "0x5974fd01000000000000000000000000000000000000000000000000000000000000006000000000000000000000000037f0c2915cecc7e977183b8543fc0864d03e064c0000000000000000000000000000000000000000000000000de0b6b3a76400000000000000000000000000000000000000000000000000000000000000000004f09fa7b100000000000000000000000000000000000000000000000000000000",
        "nonce": "0x176",
        "chainId": "0x2105",
        "accessList": null,
        "type": null
      },
      "additionalContracts": [],
      "isFixedGasLimit": false
    },
    {
      "hash": "0x3f10b75fe552aafe4184973f6ade8f0499b448fd1f0d54b965e0104c547c8c3c",
      "transactionType": "CALL",
      "contractName": null,
      "contractAddress": "0x56b10bf5e47c8262569f3119dfb4be457795c8a2",
      "function": "initFloaty(bytes,address,uint256)",
      "arguments": [
        "0xf09f92b9",
        "0x50dA645f148798F68EF2d7dB7C1CB22A6819bb2C",
        "10000000000000000000"
      ],
      "transaction": {
        "from": "0x16760803046ffa4d05878333b0953bbddc0c20cb",
        "to": "0x56b10bf5e47c8262569f3119dfb4be457795c8a2",
        "gas": "0x2529b",
        "value": "0x0",
        "input": "0x5974fd01000000000000000000000000000000000000000000000000000000000000006000000000000000000000000050da645f148798f68ef2d7db7c1cb22a6819bb2c0000000000000000000000000000000000000000000000008ac7230489e800000000000000000000000000000000000000000000000000000000000000000004f09f92b900000000000000000000000000000000000000000000000000000000",
        "nonce": "0x177",
        "chainId": "0x2105",
        "accessList": null,
        "type": null
      },
      "additionalContracts": [],
      "isFixedGasLimit": false
    }
  ],
  "receipts": [
    {
      "status": "0x1",
      "cumulativeGasUsed": "0x50e02c",
      "logs": [
        {
          "address": "0x56b10bf5e47c8262569f3119dfb4be457795c8a2",
          "topics": [
            "0x9d010941ff99f045330675d426e0ef9af37e9ee6aed43fec1376c3f2acd56106"
          ],
          "data": "0x000000000000000000000000000000000000000000000000000000000000006000000000000000000000000037f0c2915cecc7e977183b8543fc0864d03e064c0000000000000000000000000000000000000000000000000de0b6b3a76400000000000000000000000000000000000000000000000000000000000000000004f09fa7b100000000000000000000000000000000000000000000000000000000",
          "blockHash": "0x2b726709d29a77a9cbde4614ff4123ac13ade252e7ca602082bc906938ff77dc",
          "blockNumber": "0xdba176",
          "transactionHash": "0x069c2e9b6fa88d5220fa52548a9ec1923bd3b666b7f42ebd727c4c1e8062ab34",
          "transactionIndex": "0x2e",
          "logIndex": "0x46",
          "removed": false
        }
      ],
      "logsBloom": "0x00000000000000000000000000000008000000000000000000000000000000000000000000000000000000000000000000000000000000000000000000000000000000001000000000000000000000000000000000000000080000000000000000000000000000000000000000000000000000000000000000000000000000000000000000000000000000000000000000000000000000000000000000000000000000000000000000000000000000000000000000000000000000000000000000400000000000000000000100000000000000000000000020000000000000000000000000000000000000000000000000000000000000000000000000000000",
      "type": "0x2",
      "transactionHash": "0x069c2e9b6fa88d5220fa52548a9ec1923bd3b666b7f42ebd727c4c1e8062ab34",
      "transactionIndex": "0x2e",
      "blockHash": "0x2b726709d29a77a9cbde4614ff4123ac13ade252e7ca602082bc906938ff77dc",
      "blockNumber": "0xdba176",
      "gasUsed": "0x19692",
      "effectiveGasPrice": "0x2e60f38",
      "from": "0x16760803046ffa4d05878333b0953bbddc0c20cb",
      "to": "0x56b10bf5e47c8262569f3119dfb4be457795c8a2",
      "contractAddress": null,
      "l1Fee": "0x23bdac8f9",
      "l1GasPrice": "0xb163a476",
      "l1GasUsed": "0xb70"
    },
    {
      "status": "0x1",
      "cumulativeGasUsed": "0x5276be",
      "logs": [
        {
          "address": "0x56b10bf5e47c8262569f3119dfb4be457795c8a2",
          "topics": [
            "0x9d010941ff99f045330675d426e0ef9af37e9ee6aed43fec1376c3f2acd56106"
          ],
          "data": "0x000000000000000000000000000000000000000000000000000000000000006000000000000000000000000050da645f148798f68ef2d7db7c1cb22a6819bb2c0000000000000000000000000000000000000000000000008ac7230489e800000000000000000000000000000000000000000000000000000000000000000004f09f92b900000000000000000000000000000000000000000000000000000000",
          "blockHash": "0x2b726709d29a77a9cbde4614ff4123ac13ade252e7ca602082bc906938ff77dc",
          "blockNumber": "0xdba176",
          "transactionHash": "0x3f10b75fe552aafe4184973f6ade8f0499b448fd1f0d54b965e0104c547c8c3c",
          "transactionIndex": "0x2f",
          "logIndex": "0x47",
          "removed": false
        }
      ],
      "logsBloom": "0x00000000000000000000000000000008000000000000000000000000000000000000000000000000000000000000000000000000000000000000000000000000000000001000000000000000000000000000000000000000080000000000000000000000000000000000000000000000000000000000000000000000000000000000000000000000000000000000000000000000000000000000000000000000000000000000000000000000000000000000000000000000000000000000000000400000000000000000000100000000000000000000000020000000000000000000000000000000000000000000000000000000000000000000000000000000",
      "type": "0x2",
      "transactionHash": "0x3f10b75fe552aafe4184973f6ade8f0499b448fd1f0d54b965e0104c547c8c3c",
      "transactionIndex": "0x2f",
      "blockHash": "0x2b726709d29a77a9cbde4614ff4123ac13ade252e7ca602082bc906938ff77dc",
      "blockNumber": "0xdba176",
      "gasUsed": "0x19692",
      "effectiveGasPrice": "0x2e60f38",
      "from": "0x16760803046ffa4d05878333b0953bbddc0c20cb",
      "to": "0x56b10bf5e47c8262569f3119dfb4be457795c8a2",
      "contractAddress": null,
      "l1Fee": "0x23bdac8f9",
      "l1GasPrice": "0xb163a476",
      "l1GasUsed": "0xb70"
    }
  ],
  "libraries": [],
  "pending": [],
  "returns": {},
  "timestamp": 1715576790,
  "chain": 8453,
  "commit": "637d4ae"
}