{
  "transactions": [
    {
      "hash": "0x294ee8ba8635f8e97128b3bbcae04a6e08458b502239f7665098ad6cbe89c1d6",
      "transactionType": "CALL",
      "contractName": null,
      "contractAddress": "0x56B10bf5E47C8262569F3119Dfb4bE457795C8a2",
      "function": "initFloaty(bytes,address,uint256)",
      "arguments": [
        "0xe2ac86efb88f",
        "0x0578d8A44db98B23BF096A382e016e29a5Ce0ffe",
        "1000000000000000000"
      ],
      "transaction": {
        "type": "0x02",
        "from": "0x16760803046ffa4d05878333b0953bbddc0c20cb",
        "to": "0x56b10bf5e47c8262569f3119dfb4be457795c8a2",
        "gas": "0x23199",
        "value": "0x0",
        "data": "0x5974fd0100000000000000000000000000000000000000000000000000000000000000600000000000000000000000000578d8a44db98b23bf096a382e016e29a5ce0ffe0000000000000000000000000000000000000000000000000de0b6b3a76400000000000000000000000000000000000000000000000000000000000000000006e2ac86efb88f0000000000000000000000000000000000000000000000000000",
        "nonce": "0x98",
        "accessList": []
      },
      "additionalContracts": [],
      "isFixedGasLimit": false
    },
    {
      "hash": "0x263feccfbe0f4221794ba182bd67218f53523435673b20e94f4f1640fdfdcc42",
      "transactionType": "CALL",
      "contractName": null,
      "contractAddress": "0x56B10bf5E47C8262569F3119Dfb4bE457795C8a2",
      "function": "initFloaty(bytes,address,uint256)",
      "arguments": [
        "0xe2ac87efb88f",
        "0x67040BB0aD76236DdD5d156D23Ec920A089d1eac",
        "1000000000000000000"
      ],
      "transaction": {
        "type": "0x02",
        "from": "0x16760803046ffa4d05878333b0953bbddc0c20cb",
        "to": "0x56b10bf5e47c8262569f3119dfb4be457795c8a2",
        "gas": "0x23199",
        "value": "0x0",
        "data": "0x5974fd01000000000000000000000000000000000000000000000000000000000000006000000000000000000000000067040bb0ad76236ddd5d156d23ec920a089d1eac0000000000000000000000000000000000000000000000000de0b6b3a76400000000000000000000000000000000000000000000000000000000000000000006e2ac87efb88f0000000000000000000000000000000000000000000000000000",
        "nonce": "0x99",
        "accessList": []
      },
      "additionalContracts": [],
      "isFixedGasLimit": false
    }
  ],
  "receipts": [
    {
      "transactionHash": "0x294ee8ba8635f8e97128b3bbcae04a6e08458b502239f7665098ad6cbe89c1d6",
      "transactionIndex": "0x1",
      "blockHash": "0x8e2cdee543ee9f0f73e5345edbaa08ea722e5f6072f703414726793793139914",
      "blockNumber": "0xbe80d4",
      "from": "0x16760803046fFa4D05878333B0953bBDDc0C20Cb",
      "to": "0x56B10bf5E47C8262569F3119Dfb4bE457795C8a2",
      "cumulativeGasUsed": "0x24212",
      "gasUsed": "0x19697",
      "contractAddress": null,
      "logs": [
        {
          "address": "0x56B10bf5E47C8262569F3119Dfb4bE457795C8a2",
          "topics": [
            "0x9d010941ff99f045330675d426e0ef9af37e9ee6aed43fec1376c3f2acd56106"
          ],
          "data": "0x00000000000000000000000000000000000000000000000000000000000000600000000000000000000000000578d8a44db98b23bf096a382e016e29a5ce0ffe0000000000000000000000000000000000000000000000000de0b6b3a76400000000000000000000000000000000000000000000000000000000000000000006e2ac86efb88f0000000000000000000000000000000000000000000000000000",
          "blockHash": "0x8e2cdee543ee9f0f73e5345edbaa08ea722e5f6072f703414726793793139914",
          "blockNumber": "0xbe80d4",
          "transactionHash": "0x294ee8ba8635f8e97128b3bbcae04a6e08458b502239f7665098ad6cbe89c1d6",
          "transactionIndex": "0x1",
          "logIndex": "0x0",
          "removed": false
        }
      ],
      "status": "0x1",
      "logsBloom": "0x00000000000000000000000000000008000000000000000000000000000000000000000000000000000000000000000000000000000000000000000000000000000000001000000000000000000000000000000000000000080000000000000000000000000000000000000000000000000000000000000000000000000000000000000000000000000000000000000000000000000000000000000000000000000000000000000000000000000000000000000000000000000000000000000000400000000000000000000100000000000000000000000020000000000000000000000000000000000000000000000000000000000000000000000000000000",
      "type": "0x2",
      "effectiveGasPrice": "0xbb782d29"
    },
    {
      "transactionHash": "0x263feccfbe0f4221794ba182bd67218f53523435673b20e94f4f1640fdfdcc42",
      "transactionIndex": "0x2",
      "blockHash": "0x8e2cdee543ee9f0f73e5345edbaa08ea722e5f6072f703414726793793139914",
      "blockNumber": "0xbe80d4",
      "from": "0x16760803046fFa4D05878333B0953bBDDc0C20Cb",
      "to": "0x56B10bf5E47C8262569F3119Dfb4bE457795C8a2",
      "cumulativeGasUsed": "0x3d8a9",
      "gasUsed": "0x19697",
      "contractAddress": null,
      "logs": [
        {
          "address": "0x56B10bf5E47C8262569F3119Dfb4bE457795C8a2",
          "topics": [
            "0x9d010941ff99f045330675d426e0ef9af37e9ee6aed43fec1376c3f2acd56106"
          ],
          "data": "0x000000000000000000000000000000000000000000000000000000000000006000000000000000000000000067040bb0ad76236ddd5d156d23ec920a089d1eac0000000000000000000000000000000000000000000000000de0b6b3a76400000000000000000000000000000000000000000000000000000000000000000006e2ac87efb88f0000000000000000000000000000000000000000000000000000",
          "blockHash": "0x8e2cdee543ee9f0f73e5345edbaa08ea722e5f6072f703414726793793139914",
          "blockNumber": "0xbe80d4",
          "transactionHash": "0x263feccfbe0f4221794ba182bd67218f53523435673b20e94f4f1640fdfdcc42",
          "transactionIndex": "0x2",
          "logIndex": "0x1",
          "removed": false
        }
      ],
      "status": "0x1",
      "logsBloom": "0x00000000000000000000000000000008000000000000000000000000000000000000000000000000000000000000000000000000000000000000000000000000000000001000000000000000000000000000000000000000080000000000000000000000000000000000000000000000000000000000000000000000000000000000000000000000000000000000000000000000000000000000000000000000000000000000000000000000000000000000000000000000000000000000000000400000000000000000000100000000000000000000000020000000000000000000000000000000000000000000000000000000000000000000000000000000",
      "type": "0x2",
      "effectiveGasPrice": "0xbb782d29"
    }
  ],
  "libraries": [],
  "pending": [],
  "returns": {},
  "timestamp": 1711758991,
  "chain": 8453,
  "commit": "9f82b3d"
}