{
  "transactions": [
    {
      "hash": "0x3cfc6b966cfe2bb44306d7c74421da08e6ac7e5f3e217fd7209b20ad6453414a",
      "transactionType": "CALL",
      "contractName": null,
      "contractAddress": "0x56B10bf5E47C8262569F3119Dfb4bE457795C8a2",
      "function": "initFloaty(bytes,address,uint256)",
      "arguments": [
        "0xf09f8ea7",
        "0xE3086852A4B125803C815a158249ae468A3254Ca",
        "1000000000000000000"
      ],
      "transaction": {
        "type": "0x02",
        "from": "0x16760803046ffa4d05878333b0953bbddc0c20cb",
        "to": "0x56b10bf5e47c8262569f3119dfb4be457795c8a2",
        "gas": "0x23177",
        "value": "0x0",
        "data": "0x5974fd010000000000000000000000000000000000000000000000000000000000000060000000000000000000000000e3086852a4b125803c815a158249ae468a3254ca0000000000000000000000000000000000000000000000000de0b6b3a76400000000000000000000000000000000000000000000000000000000000000000004f09f8ea700000000000000000000000000000000000000000000000000000000",
        "nonce": "0x97",
        "accessList": []
      },
      "additionalContracts": [],
      "isFixedGasLimit": false
    }
  ],
  "receipts": [
    {
      "transactionHash": "0x3cfc6b966cfe2bb44306d7c74421da08e6ac7e5f3e217fd7209b20ad6453414a",
      "transactionIndex": "0x6",
      "blockHash": "0x016cc5f1974e11a34caa3a4c90361cc9e540ea98586ae0ec7f8d072998d6d270",
      "blockNumber": "0xbe68b5",
      "from": "0x16760803046fFa4D05878333B0953bBDDc0C20Cb",
      "to": "0x56B10bf5E47C8262569F3119Dfb4bE457795C8a2",
      "cumulativeGasUsed": "0xf081b",
      "gasUsed": "0x1967f",
      "contractAddress": null,
      "logs": [
        {
          "address": "0x56B10bf5E47C8262569F3119Dfb4bE457795C8a2",
          "topics": [
            "0x9d010941ff99f045330675d426e0ef9af37e9ee6aed43fec1376c3f2acd56106"
          ],
          "data": "0x0000000000000000000000000000000000000000000000000000000000000060000000000000000000000000e3086852a4b125803c815a158249ae468a3254ca0000000000000000000000000000000000000000000000000de0b6b3a76400000000000000000000000000000000000000000000000000000000000000000004f09f8ea700000000000000000000000000000000000000000000000000000000",
          "blockHash": "0x016cc5f1974e11a34caa3a4c90361cc9e540ea98586ae0ec7f8d072998d6d270",
          "blockNumber": "0xbe68b5",
          "transactionHash": "0x3cfc6b966cfe2bb44306d7c74421da08e6ac7e5f3e217fd7209b20ad6453414a",
          "transactionIndex": "0x6",
          "logIndex": "0x28",
          "removed": false
        }
      ],
      "status": "0x1",
      "logsBloom": "0x00000000000000000000000000000008000000000000000000000000000000000000000000000000000000000000000000000000000000000000000000000000000000001000000000000000000000000000000000000000080000000000000000000000000000000000000000000000000000000000000000000000000000000000000000000000000000000000000000000000000000000000000000000000000000000000000000000000000000000000000000000000000000000000000000400000000000000000000100000000000000000000000020000000000000000000000000000000000000000000000000000000000000000000000000000000",
      "type": "0x2",
      "effectiveGasPrice": "0xc9caf07c"
    }
  ],
  "libraries": [],
  "pending": [],
  "returns": {},
  "timestamp": 1711746642,
  "chain": 8453,
  "commit": "9f82b3d"
}