{
  "transactions": [
    {
      "hash": "0xb93726a197abf696f2a71a9372e485c9dd428c41675f85f1c650194626f378d2",
      "transactionType": "CALL",
      "contractName": null,
      "contractAddress": "0x56B10bf5E47C8262569F3119Dfb4bE457795C8a2",
      "function": "initFloaty(bytes,address,uint256)",
      "arguments": [
        "0xf09fa6b4",
        "0x6921B130D297cc43754afba22e5EAc0FBf8Db75b",
        "500000000000000000000"
      ],
      "transaction": {
        "type": "0x02",
        "from": "0x16760803046ffa4d05878333b0953bbddc0c20cb",
        "to": "0x56b10bf5e47c8262569f3119dfb4be457795c8a2",
        "gas": "0x25291",
        "value": "0x0",
        "data": "0x5974fd0100000000000000000000000000000000000000000000000000000000000000600000000000000000000000006921b130d297cc43754afba22e5eac0fbf8db75b00000000000000000000000000000000000000000000001b1ae4d6e2ef5000000000000000000000000000000000000000000000000000000000000000000004f09fa6b400000000000000000000000000000000000000000000000000000000",
        "nonce": "0xd7",
        "accessList": []
      },
      "additionalContracts": [],
      "isFixedGasLimit": false
    }
  ],
  "receipts": [
    {
      "transactionHash": "0xb93726a197abf696f2a71a9372e485c9dd428c41675f85f1c650194626f378d2",
      "transactionIndex": "0x1",
      "blockHash": "0xe69346f9b96b4ab2937abf5a69c6313d5cd16e48fc605f2afdb4b96181c79e4c",
      "blockNumber": "0xc53682",
      "from": "0x16760803046fFa4D05878333B0953bBDDc0C20Cb",
      "to": "0x56B10bf5E47C8262569F3119Dfb4bE457795C8a2",
      "cumulativeGasUsed": "0x241d6",
      "gasUsed": "0x1968b",
      "contractAddress": null,
      "logs": [
        {
          "address": "0x56B10bf5E47C8262569F3119Dfb4bE457795C8a2",
          "topics": [
            "0x9d010941ff99f045330675d426e0ef9af37e9ee6aed43fec1376c3f2acd56106"
          ],
          "data": "0x00000000000000000000000000000000000000000000000000000000000000600000000000000000000000006921b130d297cc43754afba22e5eac0fbf8db75b00000000000000000000000000000000000000000000001b1ae4d6e2ef5000000000000000000000000000000000000000000000000000000000000000000004f09fa6b400000000000000000000000000000000000000000000000000000000",
          "blockHash": "0xe69346f9b96b4ab2937abf5a69c6313d5cd16e48fc605f2afdb4b96181c79e4c",
          "blockNumber": "0xc53682",
          "transactionHash": "0xb93726a197abf696f2a71a9372e485c9dd428c41675f85f1c650194626f378d2",
          "transactionIndex": "0x1",
          "logIndex": "0x0",
          "removed": false
        }
      ],
      "status": "0x1",
      "logsBloom": "0x00000000000000000000000000000008000000000000000000000000000000000000000000000000000000000000000000000000000000000000000000000000000000001000000000000000000000000000000000000000080000000000000000000000000000000000000000000000000000000000000000000000000000000000000000000000000000000000000000000000000000000000000000000000000000000000000000000000000000000000000000000000000000000000000000400000000000000000000100000000000000000000000020000000000000000000000000000000000000000000000000000000000000000000000000000000",
      "type": "0x2",
      "effectiveGasPrice": "0xb454628e"
    }
  ],
  "libraries": [],
  "pending": [],
  "returns": {},
  "timestamp": 1712638444,
  "chain": 8453,
  "commit": "9f82b3d"
}