{
  "transactions": [
    {
      "hash": "0x879ec4466fb17a6cb50226f9de94c34b2cbd8d0d8f485b6711157037e2a2f037",
      "transactionType": "CALL",
      "contractName": null,
      "contractAddress": "0x56B10bf5E47C8262569F3119Dfb4bE457795C8a2",
      "function": "initFloaty(bytes,address,uint256)",
      "arguments": [
        "0xe29c88efb88f",
        "0x621E87AF48115122Cd96209F820fE0445C2ea90e",
        "1000000000000000000"
      ],
      "transaction": {
        "type": "0x02",
        "from": "0x16760803046ffa4d05878333b0953bbddc0c20cb",
        "to": "0x56b10bf5e47c8262569f3119dfb4be457795c8a2",
        "gas": "0x23199",
        "value": "0x0",
        "data": "0x5974fd010000000000000000000000000000000000000000000000000000000000000060000000000000000000000000621e87af48115122cd96209f820fe0445c2ea90e0000000000000000000000000000000000000000000000000de0b6b3a76400000000000000000000000000000000000000000000000000000000000000000006e29c88efb88f0000000000000000000000000000000000000000000000000000",
        "nonce": "0x9b",
        "accessList": []
      },
      "additionalContracts": [],
      "isFixedGasLimit": false
    }
  ],
  "receipts": [
    {
      "transactionHash": "0x879ec4466fb17a6cb50226f9de94c34b2cbd8d0d8f485b6711157037e2a2f037",
      "transactionIndex": "0x2",
      "blockHash": "0xf2c381bb2b4b9020568b8908316c392cbd041eeef91558cc9e1fa34efe8e24ae",
      "blockNumber": "0xbf329d",
      "from": "0x16760803046fFa4D05878333B0953bBDDc0C20Cb",
      "to": "0x56B10bf5E47C8262569F3119Dfb4bE457795C8a2",
      "cumulativeGasUsed": "0x40ff1",
      "gasUsed": "0x19697",
      "contractAddress": null,
      "logs": [
        {
          "address": "0x56B10bf5E47C8262569F3119Dfb4bE457795C8a2",
          "topics": [
            "0x9d010941ff99f045330675d426e0ef9af37e9ee6aed43fec1376c3f2acd56106"
          ],
          "data": "0x0000000000000000000000000000000000000000000000000000000000000060000000000000000000000000621e87af48115122cd96209f820fe0445c2ea90e0000000000000000000000000000000000000000000000000de0b6b3a76400000000000000000000000000000000000000000000000000000000000000000006e29c88efb88f0000000000000000000000000000000000000000000000000000",
          "blockHash": "0xf2c381bb2b4b9020568b8908316c392cbd041eeef91558cc9e1fa34efe8e24ae",
          "blockNumber": "0xbf329d",
          "transactionHash": "0x879ec4466fb17a6cb50226f9de94c34b2cbd8d0d8f485b6711157037e2a2f037",
          "transactionIndex": "0x2",
          "logIndex": "0x4",
          "removed": false
        }
      ],
      "status": "0x1",
      "logsBloom": "0x00000000000000000000000000000008000000000000000000000000000000000000000000000000000000000000000000000000000000000000000000000000000000001000000000000000000000000000000000000000080000000000000000000000000000000000000000000000000000000000000000000000000000000000000000000000000000000000000000000000000000000000000000000000000000000000000000000000000000000000000000000000000000000000000000400000000000000000000100000000000000000000000020000000000000000000000000000000000000000000000000000000000000000000000000000000",
      "type": "0x2",
      "effectiveGasPrice": "0xb7201b28"
    }
  ],
  "libraries": [],
  "pending": [],
  "returns": {},
  "timestamp": 1711850018,
  "chain": 8453,
  "commit": "9f82b3d"
}