{
  "transactions": [
    {
      "hash": "0xe60ed7b4cd7e4ffdb82cb0e33dd7d1b3a05cd23d2d68235cb989a3411d9c9fdf",
      "transactionType": "CALL",
      "contractName": null,
      "contractAddress": "0x56b10bf5e47c8262569f3119dfb4be457795c8a2",
      "function": "initFloaty(bytes,address,uint256)",
      "arguments": [
        "0xf09f92b9",
        "0x50dA645f148798F68EF2d7dB7C1CB22A6819bb2C",
        "1000000000"
      ],
      "transaction": {
        "from": "0x16760803046ffa4d05878333b0953bbddc0c20cb",
        "to": "0x56b10bf5e47c8262569f3119dfb4be457795c8a2",
        "gas": "0x10d56",
        "value": "0x0",
        "input": "0x5974fd01000000000000000000000000000000000000000000000000000000000000006000000000000000000000000050da645f148798f68ef2d7db7c1cb22a6819bb2c000000000000000000000000000000000000000000000000000000003b9aca000000000000000000000000000000000000000000000000000000000000000004f09f92b900000000000000000000000000000000000000000000000000000000",
        "nonce": "0x178",
        "chainId": "0x2105",
        "accessList": null,
        "type": null
      },
      "additionalContracts": [],
      "isFixedGasLimit": false
    }
  ],
  "receipts": [
    {
      "status": "0x1",
      "cumulativeGasUsed": "0x586d71",
      "logs": [
        {
          "address": "0x56b10bf5e47c8262569f3119dfb4be457795c8a2",
          "topics": [
            "0x9d010941ff99f045330675d426e0ef9af37e9ee6aed43fec1376c3f2acd56106"
          ],
          "data": "0x000000000000000000000000000000000000000000000000000000000000006000000000000000000000000050da645f148798f68ef2d7db7c1cb22a6819bb2c000000000000000000000000000000000000000000000000000000003b9aca000000000000000000000000000000000000000000000000000000000000000004f09f92b900000000000000000000000000000000000000000000000000000000",
          "blockHash": "0x34c8c8b5dbccbe894ba06f781f6fd33d0405a96f55587b9970433e6fa1e518ee",
          "blockNumber": "0xdba393",
          "transactionHash": "0xe60ed7b4cd7e4ffdb82cb0e33dd7d1b3a05cd23d2d68235cb989a3411d9c9fdf",
          "transactionIndex": "0x2e",
          "logIndex": "0x76",
          "removed": false
        }
      ],
      "logsBloom": "0x00000000000000000000000000000008000000000000000000000000000000000000000000000000000000000000000000000000000000000000000000000000000000001000000000000000000000000000000000000000080000000000000000000000000000000000000000000000000000000000000000000000000000000000000000000000000000000000000000000000000000000000000000000000000000000000000000000000000000000000000000000000000000000000000000400000000000000000000100000000000000000000000020000000000000000000000000000000000000000000000000000000000000000000000000000000",
      "type": "0x2",
      "transactionHash": "0xe60ed7b4cd7e4ffdb82cb0e33dd7d1b3a05cd23d2d68235cb989a3411d9c9fdf",
      "transactionIndex": "0x2e",
      "blockHash": "0x34c8c8b5dbccbe894ba06f781f6fd33d0405a96f55587b9970433e6fa1e518ee",
      "blockNumber": "0xdba393",
      "gasUsed": "0xb82a",
      "effectiveGasPrice": "0x26f9fc6",
      "from": "0x16760803046ffa4d05878333b0953bbddc0c20cb",
      "to": "0x56b10bf5e47c8262569f3119dfb4be457795c8a2",
      "contractAddress": null,
      "l1Fee": "0x2c3bc6abf",
      "l1GasPrice": "0xde45c0a9",
      "l1GasUsed": "0xb4c"
    }
  ],
  "libraries": [],
  "pending": [],
  "returns": {},
  "timestamp": 1715577872,
  "chain": 8453,
  "commit": "637d4ae"
}