{
  "transactions": [
    {
      "hash": "0xb1d11a12bb61ca05ac8d402ffc18944e565ed4495892e45dbdf9639a44bbd300",
      "transactionType": "CALL",
      "contractName": null,
      "contractAddress": "0x56b10bf5e47c8262569f3119dfb4be457795c8a2",
      "function": "initFloaty(bytes,address,uint256)",
      "arguments": [
        "0xe29eb0",
        "0xDdf98aad8180c3E368467782CD07AE2E3E8d36A5",
        "690000000000000000000"
      ],
      "transaction": {
        "from": "0x16760803046ffa4d05878333b0953bbddc0c20cb",
        "to": "0x56b10bf5e47c8262569f3119dfb4be457795c8a2",
        "gas": "0x2529b",
        "value": "0x0",
        "input": "0x5974fd010000000000000000000000000000000000000000000000000000000000000060000000000000000000000000ddf98aad8180c3e368467782cd07ae2e3e8d36a500000000000000000000000000000000000000000000002567ac70392b8800000000000000000000000000000000000000000000000000000000000000000003e29eb00000000000000000000000000000000000000000000000000000000000",
        "nonce": "0x17e",
        "chainId": "0x2105",
        "accessList": null,
        "type": null
      },
      "additionalContracts": [],
      "isFixedGasLimit": false
    },
    {
      "hash": "0xa72ea175e897fa13d95f8aa6e8af19856ca882d2dba24d25c25eb28afdc274c8",
      "transactionType": "CALL",
      "contractName": null,
      "contractAddress": "0x56b10bf5e47c8262569f3119dfb4be457795c8a2",
      "function": "initFloaty(bytes,address,uint256)",
      "arguments": [
        "0xf09f9098",
        "0xBf4Db8b7A679F89Ef38125d5F84dd1446AF2ea3B",
        "690000000000000000000"
      ],
      "transaction": {
        "from": "0x16760803046ffa4d05878333b0953bbddc0c20cb",
        "to": "0x56b10bf5e47c8262569f3119dfb4be457795c8a2",
        "gas": "0x231a2",
        "value": "0x0",
        "input": "0x5974fd010000000000000000000000000000000000000000000000000000000000000060000000000000000000000000bf4db8b7a679f89ef38125d5f84dd1446af2ea3b00000000000000000000000000000000000000000000002567ac70392b8800000000000000000000000000000000000000000000000000000000000000000004f09f909800000000000000000000000000000000000000000000000000000000",
        "nonce": "0x17f",
        "chainId": "0x2105",
        "accessList": null,
        "type": null
      },
      "additionalContracts": [],
      "isFixedGasLimit": false
    }
  ],
  "receipts": [
    {
      "status": "0x1",
      "cumulativeGasUsed": "0x912391",
      "logs": [
        {
          "address": "0x56b10bf5e47c8262569f3119dfb4be457795c8a2",
          "topics": [
            "0x9d010941ff99f045330675d426e0ef9af37e9ee6aed43fec1376c3f2acd56106"
          ],
          "data": "0x0000000000000000000000000000000000000000000000000000000000000060000000000000000000000000ddf98aad8180c3e368467782cd07ae2e3e8d36a500000000000000000000000000000000000000000000002567ac70392b8800000000000000000000000000000000000000000000000000000000000000000003e29eb00000000000000000000000000000000000000000000000000000000000",
          "blockHash": "0x964668deb065035a60ac195d722e2c75b77a1c46c0fbe64af7da649db8501bfa",
          "blockNumber": "0xe22c18",
          "transactionHash": "0xb1d11a12bb61ca05ac8d402ffc18944e565ed4495892e45dbdf9639a44bbd300",
          "transactionIndex": "0x24",
          "logIndex": "0xbd",
          "removed": false
        }
      ],
      "logsBloom": "0x00000000000000000000000000000008000000000000000000000000000000000000000000000000000000000000000000000000000000000000000000000000000000001000000000000000000000000000000000000000080000000000000000000000000000000000000000000000000000000000000000000000000000000000000000000000000000000000000000000000000000000000000000000000000000000000000000000000000000000000000000000000000000000000000000400000000000000000000100000000000000000000000020000000000000000000000000000000000000000000000000000000000000000000000000000000",
      "type": "0x2",
      "transactionHash": "0xb1d11a12bb61ca05ac8d402ffc18944e565ed4495892e45dbdf9639a44bbd300",
      "transactionIndex": "0x24",
      "blockHash": "0x964668deb065035a60ac195d722e2c75b77a1c46c0fbe64af7da649db8501bfa",
      "blockNumber": "0xe22c18",
      "gasUsed": "0x19692",
      "effectiveGasPrice": "0x2ab17f3",
      "from": "0x16760803046ffa4d05878333b0953bbddc0c20cb",
      "to": "0x56b10bf5e47c8262569f3119dfb4be457795c8a2",
      "contractAddress": null,
      "l1Fee": "0x41462d267",
      "l1GasPrice": "0x143f7e957",
      "l1GasUsed": "0xb70"
    },
    {
      "status": "0x1",
      "cumulativeGasUsed": "0x92ba2f",
      "logs": [
        {
          "address": "0x56b10bf5e47c8262569f3119dfb4be457795c8a2",
          "topics": [
            "0x9d010941ff99f045330675d426e0ef9af37e9ee6aed43fec1376c3f2acd56106"
          ],
          "data": "0x0000000000000000000000000000000000000000000000000000000000000060000000000000000000000000bf4db8b7a679f89ef38125d5f84dd1446af2ea3b00000000000000000000000000000000000000000000002567ac70392b8800000000000000000000000000000000000000000000000000000000000000000004f09f909800000000000000000000000000000000000000000000000000000000",
          "blockHash": "0x964668deb065035a60ac195d722e2c75b77a1c46c0fbe64af7da649db8501bfa",
          "blockNumber": "0xe22c18",
          "transactionHash": "0xa72ea175e897fa13d95f8aa6e8af19856ca882d2dba24d25c25eb28afdc274c8",
          "transactionIndex": "0x25",
          "logIndex": "0xbe",
          "removed": false
        }
      ],
      "logsBloom": "0x00000000000000000000000000000008000000000000000000000000000000000000000000000000000000000000000000000000000000000000000000000000000000001000000000000000000000000000000000000000080000000000000000000000000000000000000000000000000000000000000000000000000000000000000000000000000000000000000000000000000000000000000000000000000000000000000000000000000000000000000000000000000000000000000000400000000000000000000100000000000000000000000020000000000000000000000000000000000000000000000000000000000000000000000000000000",
      "type": "0x2",
      "transactionHash": "0xa72ea175e897fa13d95f8aa6e8af19856ca882d2dba24d25c25eb28afdc274c8",
      "transactionIndex": "0x25",
      "blockHash": "0x964668deb065035a60ac195d722e2c75b77a1c46c0fbe64af7da649db8501bfa",
      "blockNumber": "0xe22c18",
      "gasUsed": "0x1969e",
      "effectiveGasPrice": "0x2ab17f3",
      "from": "0x16760803046ffa4d05878333b0953bbddc0c20cb",
      "to": "0x56b10bf5e47c8262569f3119dfb4be457795c8a2",
      "contractAddress": null,
      "l1Fee": "0x418aa9238",
      "l1GasPrice": "0x143f7e957",
      "l1GasUsed": "0xb7c"
    }
  ],
  "libraries": [],
  "pending": [],
  "returns": {},
  "timestamp": 1716434202,
  "chain": 8453,
  "commit": "43b757b"
}