{
  "transactions": [
    {
      "hash": "0x7f48eb0c641b8cc7941d76dc333f21c6658d4476f80b4434ef40826976ad3cf1",
      "transactionType": "CALL",
      "contractName": null,
      "contractAddress": "0x56B10bf5E47C8262569F3119Dfb4bE457795C8a2",
      "function": "initFloaty(bytes,address,uint256)",
      "arguments": [
        "0xf09f90b6",
        "0xAfb89a09D82FBDE58f18Ac6437B3fC81724e4dF6",
        "10000000000000000000"
      ],
      "transaction": {
        "type": "0x02",
        "from": "0x16760803046ffa4d05878333b0953bbddc0c20cb",
        "to": "0x56b10bf5e47c8262569f3119dfb4be457795c8a2",
        "gas": "0x23177",
        "value": "0x0",
        "data": "0x5974fd010000000000000000000000000000000000000000000000000000000000000060000000000000000000000000afb89a09d82fbde58f18ac6437b3fc81724e4df60000000000000000000000000000000000000000000000008ac7230489e800000000000000000000000000000000000000000000000000000000000000000004f09f90b600000000000000000000000000000000000000000000000000000000",
        "nonce": "0x7e",
        "accessList": []
      },
      "additionalContracts": [],
      "isFixedGasLimit": false
    }
  ],
  "receipts": [
    {
      "transactionHash": "0x7f48eb0c641b8cc7941d76dc333f21c6658d4476f80b4434ef40826976ad3cf1",
      "transactionIndex": "0x2",
      "blockHash": "0x8cd4c7589854daa10632bba2d18913be21f5e12abb93249b557c15305c0ab883",
      "blockNumber": "0xbb4a80",
      "from": "0x16760803046fFa4D05878333B0953bBDDc0C20Cb",
      "to": "0x56B10bf5E47C8262569F3119Dfb4bE457795C8a2",
      "cumulativeGasUsed": "0x52767",
      "gasUsed": "0x1967f",
      "contractAddress": null,
      "logs": [
        {
          "address": "0x56B10bf5E47C8262569F3119Dfb4bE457795C8a2",
          "topics": [
            "0x9d010941ff99f045330675d426e0ef9af37e9ee6aed43fec1376c3f2acd56106"
          ],
          "data": "0x0000000000000000000000000000000000000000000000000000000000000060000000000000000000000000afb89a09d82fbde58f18ac6437b3fc81724e4df60000000000000000000000000000000000000000000000008ac7230489e800000000000000000000000000000000000000000000000000000000000000000004f09f90b600000000000000000000000000000000000000000000000000000000",
          "blockHash": "0x8cd4c7589854daa10632bba2d18913be21f5e12abb93249b557c15305c0ab883",
          "blockNumber": "0xbb4a80",
          "transactionHash": "0x7f48eb0c641b8cc7941d76dc333f21c6658d4476f80b4434ef40826976ad3cf1",
          "transactionIndex": "0x2",
          "logIndex": "0x8",
          "removed": false
        }
      ],
      "status": "0x1",
      "logsBloom": "0x00000000000000000000000000000008000000000000000000000000000000000000000000000000000000000000000000000000000000000000000000000000000000001000000000000000000000000000000000000000080000000000000000000000000000000000000000000000000000000000000000000000000000000000000000000000000000000000000000000000000000000000000000000000000000000000000000000000000000000000000000000000000000000000000000400000000000000000000100000000000000000000000020000000000000000000000000000000000000000000000000000000000000000000000000000000",
      "type": "0x2",
      "effectiveGasPrice": "0xc64deb56"
    }
  ],
  "libraries": [],
  "pending": [],
  "returns": {},
  "timestamp": 1711337959,
  "chain": 8453,
  "commit": "9f82b3d"
}