{
  "transactions": [
    {
      "hash": "0x0234287ad4cf2527d49f590b60682e4d4a3996cb76fdd62a992da6d8218acfd9",
      "transactionType": "CALL",
      "contractName": null,
      "contractAddress": "0x56B10bf5E47C8262569F3119Dfb4bE457795C8a2",
      "function": "initFloaty(bytes,address,uint256)",
      "arguments": [
        "0xf09f92b8",
        "0x833589fCD6eDb6E08f4c7C32D4f71b54bdA02913",
        "10000"
      ],
      "transaction": {
        "type": "0x02",
        "from": "0x16760803046ffa4d05878333b0953bbddc0c20cb",
        "to": "0x56b10bf5e47c8262569f3119dfb4be457795c8a2",
        "gas": "0x23135",
        "value": "0x0",
        "data": "0x5974fd010000000000000000000000000000000000000000000000000000000000000060000000000000000000000000833589fcd6edb6e08f4c7c32d4f71b54bda0291300000000000000000000000000000000000000000000000000000000000027100000000000000000000000000000000000000000000000000000000000000004f09f92b800000000000000000000000000000000000000000000000000000000",
        "nonce": "0x9a",
        "accessList": []
      },
      "additionalContracts": [],
      "isFixedGasLimit": false
    }
  ],
  "receipts": [
    {
      "transactionHash": "0x0234287ad4cf2527d49f590b60682e4d4a3996cb76fdd62a992da6d8218acfd9",
      "transactionIndex": "0x3",
      "blockHash": "0xff496375a8f94f083c59d864c51f91b9e87a345e9ee026dc2a3d2554663dcff7",
      "blockNumber": "0xbe978a",
      "from": "0x16760803046fFa4D05878333B0953bBDDc0C20Cb",
      "to": "0x56B10bf5E47C8262569F3119Dfb4bE457795C8a2",
      "cumulativeGasUsed": "0x6080e",
      "gasUsed": "0x1964f",
      "contractAddress": null,
      "logs": [
        {
          "address": "0x56B10bf5E47C8262569F3119Dfb4bE457795C8a2",
          "topics": [
            "0x9d010941ff99f045330675d426e0ef9af37e9ee6aed43fec1376c3f2acd56106"
          ],
          "data": "0x0000000000000000000000000000000000000000000000000000000000000060000000000000000000000000833589fcd6edb6e08f4c7c32d4f71b54bda0291300000000000000000000000000000000000000000000000000000000000027100000000000000000000000000000000000000000000000000000000000000004f09f92b800000000000000000000000000000000000000000000000000000000",
          "blockHash": "0xff496375a8f94f083c59d864c51f91b9e87a345e9ee026dc2a3d2554663dcff7",
          "blockNumber": "0xbe978a",
          "transactionHash": "0x0234287ad4cf2527d49f590b60682e4d4a3996cb76fdd62a992da6d8218acfd9",
          "transactionIndex": "0x3",
          "logIndex": "0x9",
          "removed": false
        }
      ],
      "status": "0x1",
      "logsBloom": "0x00000000000000000000000000000008000000000000000000000000000000000000000000000000000000000000000000000000000000000000000000000000000000001000000000000000000000000000000000000000080000000000000000000000000000000000000000000000000000000000000000000000000000000000000000000000000000000000000000000000000000000000000000000000000000000000000000000000000000000000000000000000000000000000000000400000000000000000000100000000000000000000000020000000000000000000000000000000000000000000000000000000000000000000000000000000",
      "type": "0x2",
      "effectiveGasPrice": "0xbd5e2ccb"
    }
  ],
  "libraries": [],
  "pending": [],
  "returns": {},
  "timestamp": 1711770620,
  "chain": 8453,
  "commit": "9f82b3d"
}