{
  "transactions": [
    {
      "hash": "0x113daaa2f966f047dd13b25b3fcf8209b6f10575dad5cb293619495081704023",
      "transactionType": "CALL",
      "contractName": null,
      "contractAddress": "0x56B10bf5E47C8262569F3119Dfb4bE457795C8a2",
      "function": "initFloaty(bytes,address,uint256)",
      "arguments": [
        "0xf09f92aa",
        "0xecaF81Eb42cd30014EB44130b89Bcd6d4Ad98B92",
        "100000000000000000000"
      ],
      "transaction": {
        "type": "0x02",
        "from": "0x16760803046ffa4d05878333b0953bbddc0c20cb",
        "to": "0x56b10bf5e47c8262569f3119dfb4be457795c8a2",
        "gas": "0x25291",
        "value": "0x0",
        "data": "0x5974fd010000000000000000000000000000000000000000000000000000000000000060000000000000000000000000ecaf81eb42cd30014eb44130b89bcd6d4ad98b920000000000000000000000000000000000000000000000056bc75e2d631000000000000000000000000000000000000000000000000000000000000000000004f09f92aa00000000000000000000000000000000000000000000000000000000",
        "nonce": "0xbb",
        "accessList": []
      },
      "additionalContracts": [],
      "isFixedGasLimit": false
    }
  ],
  "receipts": [
    {
      "transactionHash": "0x113daaa2f966f047dd13b25b3fcf8209b6f10575dad5cb293619495081704023",
      "transactionIndex": "0x1",
      "blockHash": "0x1165911379a385a4cbd04dcea6e2dd2a8a41945e8c3d7b18e49a04ce3bc1d806",
      "blockNumber": "0xc39750",
      "from": "0x16760803046fFa4D05878333B0953bBDDc0C20Cb",
      "to": "0x56B10bf5E47C8262569F3119Dfb4bE457795C8a2",
      "cumulativeGasUsed": "0x241d6",
      "gasUsed": "0x1968b",
      "contractAddress": null,
      "logs": [
        {
          "address": "0x56B10bf5E47C8262569F3119Dfb4bE457795C8a2",
          "topics": [
            "0x9d010941ff99f045330675d426e0ef9af37e9ee6aed43fec1376c3f2acd56106"
          ],
          "data": "0x0000000000000000000000000000000000000000000000000000000000000060000000000000000000000000ecaf81eb42cd30014eb44130b89bcd6d4ad98b920000000000000000000000000000000000000000000000056bc75e2d631000000000000000000000000000000000000000000000000000000000000000000004f09f92aa00000000000000000000000000000000000000000000000000000000",
          "blockHash": "0x1165911379a385a4cbd04dcea6e2dd2a8a41945e8c3d7b18e49a04ce3bc1d806",
          "blockNumber": "0xc39750",
          "transactionHash": "0x113daaa2f966f047dd13b25b3fcf8209b6f10575dad5cb293619495081704023",
          "transactionIndex": "0x1",
          "logIndex": "0x0",
          "removed": false
        }
      ],
      "status": "0x1",
      "logsBloom": "0x00000000000000000000000000000008000000000000000000000000000000000000000000000000000000000000000000000000000000000000000000000000000000001000000000000000000000000000000000000000080000000000000000000000000000000000000000000000000000000000000000000000000000000000000000000000000000000000000000000000000000000000000000000000000000000000000000000000000000000000000000000000000000000000000000400000000000000000000100000000000000000000000020000000000000000000000000000000000000000000000000000000000000000000000000000000",
      "type": "0x2",
      "effectiveGasPrice": "0xb69ee5a3"
    }
  ],
  "libraries": [],
  "pending": [],
  "returns": {},
  "timestamp": 1712425863,
  "chain": 8453,
  "commit": "9f82b3d"
}