{
  "transactions": [
    {
      "hash": "0x93312aaa1208f10bda1a31053aac1550f476571260577a46f9b7e467d24f3ba2",
      "transactionType": "CALL",
      "contractName": null,
      "contractAddress": "0x56b10bf5e47c8262569f3119dfb4be457795c8a2",
      "function": "initFloaty(bytes,address,uint256)",
      "arguments": [
        "0xf09f90b1",
        "0xF6e932Ca12afa26665dC4dDE7e27be02A7c02e50",
        "100000000000000000000000"
      ],
      "transaction": {
        "from": "0x16760803046ffa4d05878333b0953bbddc0c20cb",
        "to": "0x56b10bf5e47c8262569f3119dfb4be457795c8a2",
        "gas": "0x252be",
        "value": "0x0",
        "input": "0x5974fd010000000000000000000000000000000000000000000000000000000000000060000000000000000000000000f6e932ca12afa26665dc4dde7e27be02a7c02e5000000000000000000000000000000000000000000000152d02c7e14af68000000000000000000000000000000000000000000000000000000000000000000004f09f90b100000000000000000000000000000000000000000000000000000000",
        "nonce": "0x16b",
        "chainId": "0x2105",
        "accessList": null,
        "type": null
      },
      "additionalContracts": [],
      "isFixedGasLimit": false
    }
  ],
  "receipts": [
    {
      "status": "0x1",
      "cumulativeGasUsed": "0x679f9a",
      "logs": [
        {
          "address": "0x56b10bf5e47c8262569f3119dfb4be457795c8a2",
          "topics": [
            "0x9d010941ff99f045330675d426e0ef9af37e9ee6aed43fec1376c3f2acd56106"
          ],
          "data": "0x0000000000000000000000000000000000000000000000000000000000000060000000000000000000000000f6e932ca12afa26665dc4dde7e27be02a7c02e5000000000000000000000000000000000000000000000152d02c7e14af68000000000000000000000000000000000000000000000000000000000000000000004f09f90b100000000000000000000000000000000000000000000000000000000",
          "blockHash": "0x4448cd34953bd8159467c3ceee26e86e45b7a50f11835382a774559b0611eeea",
          "blockNumber": "0xd587b5",
          "transactionHash": "0x93312aaa1208f10bda1a31053aac1550f476571260577a46f9b7e467d24f3ba2",
          "transactionIndex": "0x2e",
          "logIndex": "0xdc",
          "removed": false
        }
      ],
      "logsBloom": "0x00000000000000000000000000000008000000000000000000000000000000000000000000000000000000000000000000000000000000000000000000000000000000001000000000000000000000000000000000000000080000000000000000000000000000000000000000000000000000000000000000000000000000000000000000000000000000000000000000000000000000000000000000000000000000000000000000000000000000000000000000000000000000000000000000400000000000000000000100000000000000000000000020000000000000000000000000000000000000000000000000000000000000000000000000000000",
      "type": "0x2",
      "transactionHash": "0x93312aaa1208f10bda1a31053aac1550f476571260577a46f9b7e467d24f3ba2",
      "transactionIndex": "0x2e",
      "blockHash": "0x4448cd34953bd8159467c3ceee26e86e45b7a50f11835382a774559b0611eeea",
      "blockNumber": "0xd587b5",
      "gasUsed": "0x196aa",
      "effectiveGasPrice": "0x50af810",
      "from": "0x16760803046ffa4d05878333b0953bbddc0c20cb",
      "to": "0x56b10bf5e47c8262569f3119dfb4be457795c8a2",
      "contractAddress": null,
      "l1Fee": "0x3aa4eadea",
      "l1GasPrice": "0x121dff2df",
      "l1GasUsed": "0xb7c"
    }
  ],
  "libraries": [],
  "pending": [],
  "returns": {},
  "timestamp": 1714777171,
  "chain": 8453,
  "commit": "1755dcb"
}