{
  "transactions": [
    {
      "hash": "0xad70a239a291664b0a084385db2569dbfd2599bad9231b61b4806388fd00e102",
      "transactionType": "CALL",
      "contractName": null,
      "contractAddress": "0x56b10bf5e47c8262569f3119dfb4be457795c8a2",
      "function": "initFloaty(bytes,address,uint256)",
      "arguments": [
        "0xe28c90e297a82de297a8",
        "0x13741C5dF9aB03E7Aa9Fb3Bf1f714551dD5A5F8a",
        "1000000000000000000000"
      ],
      "transaction": {
        "from": "0x16760803046ffa4d05878333b0953bbddc0c20cb",
        "to": "0x56b10bf5e47c8262569f3119dfb4be457795c8a2",
        "gas": "0x10e06",
        "value": "0x0",
        "input": "0x5974fd01000000000000000000000000000000000000000000000000000000000000006000000000000000000000000013741c5df9ab03e7aa9fb3bf1f714551dd5a5f8a00000000000000000000000000000000000000000000003635c9adc5dea00000000000000000000000000000000000000000000000000000000000000000000ae28c90e297a82de297a800000000000000000000000000000000000000000000",
        "nonce": "0x16d",
        "chainId": "0x2105",
        "accessList": null,
        "type": null
      },
      "additionalContracts": [],
      "isFixedGasLimit": false
    },
    {
      "hash": "0x0183fad6acf16e82c44fe472577545791d6da8c37de7df62ff03abc5d225bf80",
      "transactionType": "CALL",
      "contractName": null,
      "contractAddress": "0x56b10bf5e47c8262569f3119dfb4be457795c8a2",
      "function": "initFloaty(bytes,address,uint256)",
      "arguments": [
        "0xf09faaa8",
        "0xEcE7B98bD817ee5B1F2f536dAf34D0B6af8Bb542",
        "100000000000000000000"
      ],
      "transaction": {
        "from": "0x16760803046ffa4d05878333b0953bbddc0c20cb",
        "to": "0x56b10bf5e47c8262569f3119dfb4be457795c8a2",
        "gas": "0x231a2",
        "value": "0x0",
        "input": "0x5974fd010000000000000000000000000000000000000000000000000000000000000060000000000000000000000000ece7b98bd817ee5b1f2f536daf34d0b6af8bb5420000000000000000000000000000000000000000000000056bc75e2d631000000000000000000000000000000000000000000000000000000000000000000004f09faaa800000000000000000000000000000000000000000000000000000000",
        "nonce": "0x16e",
        "chainId": "0x2105",
        "accessList": null,
        "type": null
      },
      "additionalContracts": [],
      "isFixedGasLimit": false
    },
    {
      "hash": "0x71e818578437d984a006cf82f95d3feb0f50eca2e9e32f47c8b721a100515ebd",
      "transactionType": "CALL",
      "contractName": null,
      "contractAddress": "0x56b10bf5e47c8262569f3119dfb4be457795c8a2",
      "function": "initFloaty(bytes,address,uint256)",
      "arguments": [
        "0xf09f9aac",
        "0xE3086852A4B125803C815a158249ae468A3254Ca",
        "69000000000000000000"
      ],
      "transaction": {
        "from": "0x16760803046ffa4d05878333b0953bbddc0c20cb",
        "to": "0x56b10bf5e47c8262569f3119dfb4be457795c8a2",
        "gas": "0x231a2",
        "value": "0x0",
        "input": "0x5974fd010000000000000000000000000000000000000000000000000000000000000060000000000000000000000000e3086852a4b125803c815a158249ae468a3254ca000000000000000000000000000000000000000000000003bd913e6c1df400000000000000000000000000000000000000000000000000000000000000000004f09f9aac00000000000000000000000000000000000000000000000000000000",
        "nonce": "0x16f",
        "chainId": "0x2105",
        "accessList": null,
        "type": null
      },
      "additionalContracts": [],
      "isFixedGasLimit": false
    }
  ],
  "receipts": [
    {
      "status": "0x1",
      "cumulativeGasUsed": "0x5e7bf6",
      "logs": [
        {
          "address": "0x56b10bf5e47c8262569f3119dfb4be457795c8a2",
          "topics": [
            "0x9d010941ff99f045330675d426e0ef9af37e9ee6aed43fec1376c3f2acd56106"
          ],
          "data": "0x000000000000000000000000000000000000000000000000000000000000006000000000000000000000000013741c5df9ab03e7aa9fb3bf1f714551dd5a5f8a00000000000000000000000000000000000000000000003635c9adc5dea00000000000000000000000000000000000000000000000000000000000000000000ae28c90e297a82de297a800000000000000000000000000000000000000000000",
          "blockHash": "0x769bd6f474568a1fbc6cacaf4f70c465f919cb99881d5dc586dfd6b884133b0c",
          "blockNumber": "0xd83c0f",
          "transactionHash": "0xad70a239a291664b0a084385db2569dbfd2599bad9231b61b4806388fd00e102",
          "transactionIndex": "0x29",
          "logIndex": "0xb0",
          "removed": false
        }
      ],
      "logsBloom": "0x00000000000000000000000000000008000000000000000000000000000000000000000000000000000000000000000000000000000000000000000000000000000000001000000000000000000000000000000000000000080000000000000000000000000000000000000000000000000000000000000000000000000000000000000000000000000000000000000000000000000000000000000000000000000000000000000000000000000000000000000000000000000000000000000000400000000000000000000100000000000000000000000020000000000000000000000000000000000000000000000000000000000000000000000000000000",
      "type": "0x2",
      "transactionHash": "0xad70a239a291664b0a084385db2569dbfd2599bad9231b61b4806388fd00e102",
      "transactionIndex": "0x29",
      "blockHash": "0x769bd6f474568a1fbc6cacaf4f70c465f919cb99881d5dc586dfd6b884133b0c",
      "blockNumber": "0xd83c0f",
      "gasUsed": "0xb8a2",
      "effectiveGasPrice": "0x2e3b745",
      "from": "0x16760803046ffa4d05878333b0953bbddc0c20cb",
      "to": "0x56b10bf5e47c8262569f3119dfb4be457795c8a2",
      "contractAddress": null,
      "l1Fee": "0x34abbb096",
      "l1GasPrice": "0xfe200f71",
      "l1GasUsed": "0xbc4"
    },
    {
      "status": "0x1",
      "cumulativeGasUsed": "0x611120",
      "logs": [
        {
          "address": "0x56b10bf5e47c8262569f3119dfb4be457795c8a2",
          "topics": [
            "0x9d010941ff99f045330675d426e0ef9af37e9ee6aed43fec1376c3f2acd56106"
          ],
          "data": "0x0000000000000000000000000000000000000000000000000000000000000060000000000000000000000000ece7b98bd817ee5b1f2f536daf34d0b6af8bb5420000000000000000000000000000000000000000000000056bc75e2d631000000000000000000000000000000000000000000000000000000000000000000004f09faaa800000000000000000000000000000000000000000000000000000000",
          "blockHash": "0x769bd6f474568a1fbc6cacaf4f70c465f919cb99881d5dc586dfd6b884133b0c",
          "blockNumber": "0xd83c0f",
          "transactionHash": "0x0183fad6acf16e82c44fe472577545791d6da8c37de7df62ff03abc5d225bf80",
          "transactionIndex": "0x2c",
          "logIndex": "0xb1",
          "removed": false
        }
      ],
      "logsBloom": "0x00000000000000000000000000000008000000000000000000000000000000000000000000000000000000000000000000000000000000000000000000000000000000001000000000000000000000000000000000000000080000000000000000000000000000000000000000000000000000000000000000000000000000000000000000000000000000000000000000000000000000000000000000000000000000000000000000000000000000000000000000000000000000000000000000400000000000000000000100000000000000000000000020000000000000000000000000000000000000000000000000000000000000000000000000000000",
      "type": "0x2",
      "transactionHash": "0x0183fad6acf16e82c44fe472577545791d6da8c37de7df62ff03abc5d225bf80",
      "transactionIndex": "0x2c",
      "blockHash": "0x769bd6f474568a1fbc6cacaf4f70c465f919cb99881d5dc586dfd6b884133b0c",
      "blockNumber": "0xd83c0f",
      "gasUsed": "0x1969e",
      "effectiveGasPrice": "0x2e3b745",
      "from": "0x16760803046ffa4d05878333b0953bbddc0c20cb",
      "to": "0x56b10bf5e47c8262569f3119dfb4be457795c8a2",
      "contractAddress": null,
      "l1Fee": "0x3369690d4",
      "l1GasPrice": "0xfe200f71",
      "l1GasUsed": "0xb7c"
    },
    {
      "status": "0x1",
      "cumulativeGasUsed": "0x62a7be",
      "logs": [
        {
          "address": "0x56b10bf5e47c8262569f3119dfb4be457795c8a2",
          "topics": [
            "0x9d010941ff99f045330675d426e0ef9af37e9ee6aed43fec1376c3f2acd56106"
          ],
          "data": "0x0000000000000000000000000000000000000000000000000000000000000060000000000000000000000000e3086852a4b125803c815a158249ae468a3254ca000000000000000000000000000000000000000000000003bd913e6c1df400000000000000000000000000000000000000000000000000000000000000000004f09f9aac00000000000000000000000000000000000000000000000000000000",
          "blockHash": "0x769bd6f474568a1fbc6cacaf4f70c465f919cb99881d5dc586dfd6b884133b0c",
          "blockNumber": "0xd83c0f",
          "transactionHash": "0x71e818578437d984a006cf82f95d3feb0f50eca2e9e32f47c8b721a100515ebd",
          "transactionIndex": "0x2d",
          "logIndex": "0xb2",
          "removed": false
        }
      ],
      "logsBloom": "0x00000000000000000000000000000008000000000000000000000000000000000000000000000000000000000000000000000000000000000000000000000000000000001000000000000000000000000000000000000000080000000000000000000000000000000000000000000000000000000000000000000000000000000000000000000000000000000000000000000000000000000000000000000000000000000000000000000000000000000000000000000000000000000000000000400000000000000000000100000000000000000000000020000000000000000000000000000000000000000000000000000000000000000000000000000000",
      "type": "0x2",
      "transactionHash": "0x71e818578437d984a006cf82f95d3feb0f50eca2e9e32f47c8b721a100515ebd",
      "transactionIndex": "0x2d",
      "blockHash": "0x769bd6f474568a1fbc6cacaf4f70c465f919cb99881d5dc586dfd6b884133b0c",
      "blockNumber": "0xd83c0f",
      "gasUsed": "0x1969e",
      "effectiveGasPrice": "0x2e3b745",
      "from": "0x16760803046ffa4d05878333b0953bbddc0c20cb",
      "to": "0x56b10bf5e47c8262569f3119dfb4be457795c8a2",
      "contractAddress": null,
      "l1Fee": "0x3369690d4",
      "l1GasPrice": "0xfe200f71",
      "l1GasUsed": "0xb7c"
    }
  ],
  "libraries": [],
  "pending": [],
  "returns": {},
  "timestamp": 1715131656,
  "chain": 8453,
  "commit": "637d4ae"
}