{
  "transactions": [
    {
      "hash": "0xdc4adaefde75c6e74c8a22cd8dffda888682ae20b930b79871300e74f17e61f6",
      "transactionType": "CALL",
      "contractName": null,
      "contractAddress": "0x56b10bf5e47c8262569f3119dfb4be457795c8a2",
      "function": "initFloaty(bytes,address,uint256)",
      "arguments": [
        "0xf09fa696",
        "0xb82cFFFe1d76f1caBcf8A00774c0287d71702fC9",
        "1000000000000000000"
      ],
      "transaction": {
        "from": "0x16760803046ffa4d05878333b0953bbddc0c20cb",
        "to": "0x56b10bf5e47c8262569f3119dfb4be457795c8a2",
        "gas": "0xfe91",
        "value": "0x0",
        "input": "0x5974fd010000000000000000000000000000000000000000000000000000000000000060000000000000000000000000b82cfffe1d76f1cabcf8a00774c0287d71702fc90000000000000000000000000000000000000000000000000de0b6b3a76400000000000000000000000000000000000000000000000000000000000000000004f09fa69600000000000000000000000000000000000000000000000000000000",
        "nonce": "0x15f",
        "chainId": "0x2105",
        "accessList": null,
        "type": null
      },
      "additionalContracts": [],
      "isFixedGasLimit": false
    },
    {
      "hash": "0x1272ae8e493c180c09fe873aab64ae418374a3ff71ffe87b618efd5b022e4f7c",
      "transactionType": "CALL",
      "contractName": null,
      "contractAddress": "0x56b10bf5e47c8262569f3119dfb4be457795c8a2",
      "function": "initFloaty(bytes,address,uint256)",
      "arguments": [
        "0xf09fa496",
        "0x0b3e328455c4059EEb9e3f84b5543F74E24e7E1b",
        "1000000000000000000"
      ],
      "transaction": {
        "from": "0x16760803046ffa4d05878333b0953bbddc0c20cb",
        "to": "0x56b10bf5e47c8262569f3119dfb4be457795c8a2",
        "gas": "0x2529b",
        "value": "0x0",
        "input": "0x5974fd0100000000000000000000000000000000000000000000000000000000000000600000000000000000000000000b3e328455c4059eeb9e3f84b5543f74e24e7e1b0000000000000000000000000000000000000000000000000de0b6b3a76400000000000000000000000000000000000000000000000000000000000000000004f09fa49600000000000000000000000000000000000000000000000000000000",
        "nonce": "0x160",
        "chainId": "0x2105",
        "accessList": null,
        "type": null
      },
      "additionalContracts": [],
      "isFixedGasLimit": false
    },
    {
      "hash": "0xc28cba97968e55b8088e13f30fdf4e53a09573ef775643a594715fc93e4e9d7d",
      "transactionType": "CALL",
      "contractName": null,
      "contractAddress": "0x56b10bf5e47c8262569f3119dfb4be457795c8a2",
      "function": "initFloaty(bytes,address,uint256)",
      "arguments": [
        "0xf09fa499",
        "0x478e03D45716dDa94F6DbC15A633B0D90c237E2F",
        "100000000000000000000"
      ],
      "transaction": {
        "from": "0x16760803046ffa4d05878333b0953bbddc0c20cb",
        "to": "0x56b10bf5e47c8262569f3119dfb4be457795c8a2",
        "gas": "0x231a2",
        "value": "0x0",
        "input": "0x5974fd010000000000000000000000000000000000000000000000000000000000000060000000000000000000000000478e03d45716dda94f6dbc15a633b0d90c237e2f0000000000000000000000000000000000000000000000056bc75e2d631000000000000000000000000000000000000000000000000000000000000000000004f09fa49900000000000000000000000000000000000000000000000000000000",
        "nonce": "0x161",
        "chainId": "0x2105",
        "accessList": null,
        "type": null
      },
      "additionalContracts": [],
      "isFixedGasLimit": false
    }
  ],
  "receipts": [
    {
      "status": "0x1",
      "cumulativeGasUsed": "0x6b31d0",
      "logs": [
        {
          "address": "0x56b10bf5e47c8262569f3119dfb4be457795c8a2",
          "topics": [
            "0x9d010941ff99f045330675d426e0ef9af37e9ee6aed43fec1376c3f2acd56106"
          ],
          "data": "0x0000000000000000000000000000000000000000000000000000000000000060000000000000000000000000b82cfffe1d76f1cabcf8a00774c0287d71702fc90000000000000000000000000000000000000000000000000de0b6b3a76400000000000000000000000000000000000000000000000000000000000000000004f09fa69600000000000000000000000000000000000000000000000000000000",
          "blockHash": "0xd3ecb80b70986e1b733f9971534962f40d74e5aec20da90ec70bc1fbd4023e54",
          "blockNumber": "0xd22f09",
          "transactionHash": "0xdc4adaefde75c6e74c8a22cd8dffda888682ae20b930b79871300e74f17e61f6",
          "transactionIndex": "0x4c",
          "logIndex": "0x7d",
          "removed": false
        }
      ],
      "logsBloom": "0x00000000000000000000000000000008000000000000000000000000000000000000000000000000000000000000000000000000000000000000000000000000000000001000000000000000000000000000000000000000080000000000000000000000000000000000000000000000000000000000000000000000000000000000000000000000000000000000000000000000000000000000000000000000000000000000000000000000000000000000000000000000000000000000000000400000000000000000000100000000000000000000000020000000000000000000000000000000000000000000000000000000000000000000000000000000",
      "type": "0x2",
      "transactionHash": "0xdc4adaefde75c6e74c8a22cd8dffda888682ae20b930b79871300e74f17e61f6",
      "transactionIndex": "0x4c",
      "blockHash": "0xd3ecb80b70986e1b733f9971534962f40d74e5aec20da90ec70bc1fbd4023e54",
      "blockNumber": "0xd22f09",
      "gasUsed": "0xb84e",
      "effectiveGasPrice": "0x781f830",
      "from": "0x16760803046ffa4d05878333b0953bbddc0c20cb",
      "to": "0x56b10bf5e47c8262569f3119dfb4be457795c8a2",
      "contractAddress": null,
      "l1Fee": "0x425c26f25",
      "l1GasPrice": "0x14b2ad521",
      "l1GasUsed": "0xb60"
    },
    {
      "status": "0x1",
      "cumulativeGasUsed": "0x6cc862",
      "logs": [
        {
          "address": "0x56b10bf5e47c8262569f3119dfb4be457795c8a2",
          "topics": [
            "0x9d010941ff99f045330675d426e0ef9af37e9ee6aed43fec1376c3f2acd56106"
          ],
          "data": "0x00000000000000000000000000000000000000000000000000000000000000600000000000000000000000000b3e328455c4059eeb9e3f84b5543f74e24e7e1b0000000000000000000000000000000000000000000000000de0b6b3a76400000000000000000000000000000000000000000000000000000000000000000004f09fa49600000000000000000000000000000000000000000000000000000000",
          "blockHash": "0xd3ecb80b70986e1b733f9971534962f40d74e5aec20da90ec70bc1fbd4023e54",
          "blockNumber": "0xd22f09",
          "transactionHash": "0x1272ae8e493c180c09fe873aab64ae418374a3ff71ffe87b618efd5b022e4f7c",
          "transactionIndex": "0x4d",
          "logIndex": "0x7e",
          "removed": false
        }
      ],
      "logsBloom": "0x00000000000000000000000000000008000000000000000000000000000000000000000000000000000000000000000000000000000000000000000000000000000000001000000000000000000000000000000000000000080000000000000000000000000000000000000000000000000000000000000000000000000000000000000000000000000000000000000000000000000000000000000000000000000000000000000000000000000000000000000000000000000000000000000000400000000000000000000100000000000000000000000020000000000000000000000000000000000000000000000000000000000000000000000000000000",
      "type": "0x2",
      "transactionHash": "0x1272ae8e493c180c09fe873aab64ae418374a3ff71ffe87b618efd5b022e4f7c",
      "transactionIndex": "0x4d",
      "blockHash": "0xd3ecb80b70986e1b733f9971534962f40d74e5aec20da90ec70bc1fbd4023e54",
      "blockNumber": "0xd22f09",
      "gasUsed": "0x19692",
      "effectiveGasPrice": "0x781f830",
      "from": "0x16760803046ffa4d05878333b0953bbddc0c20cb",
      "to": "0x56b10bf5e47c8262569f3119dfb4be457795c8a2",
      "contractAddress": null,
      "l1Fee": "0x42737ccd6",
      "l1GasPrice": "0x14b2ad521",
      "l1GasUsed": "0xb64"
    },
    {
      "status": "0x1",
      "cumulativeGasUsed": "0x71c27b",
      "logs": [
        {
          "address": "0x56b10bf5e47c8262569f3119dfb4be457795c8a2",
          "topics": [
            "0x9d010941ff99f045330675d426e0ef9af37e9ee6aed43fec1376c3f2acd56106"
          ],
          "data": "0x0000000000000000000000000000000000000000000000000000000000000060000000000000000000000000478e03d45716dda94f6dbc15a633b0d90c237e2f0000000000000000000000000000000000000000000000056bc75e2d631000000000000000000000000000000000000000000000000000000000000000000004f09fa49900000000000000000000000000000000000000000000000000000000",
          "blockHash": "0xd3ecb80b70986e1b733f9971534962f40d74e5aec20da90ec70bc1fbd4023e54",
          "blockNumber": "0xd22f09",
          "transactionHash": "0xc28cba97968e55b8088e13f30fdf4e53a09573ef775643a594715fc93e4e9d7d",
          "transactionIndex": "0x53",
          "logIndex": "0x7f",
          "removed": false
        }
      ],
      "logsBloom": "0x00000000000000000000000000000008000000000000000000000000000000000000000000000000000000000000000000000000000000000000000000000000000000001000000000000000000000000000000000000000080000000000000000000000000000000000000000000000000000000000000000000000000000000000000000000000000000000000000000000000000000000000000000000000000000000000000000000000000000000000000000000000000000000000000000400000000000000000000100000000000000000000000020000000000000000000000000000000000000000000000000000000000000000000000000000000",
      "type": "0x2",
      "transactionHash": "0xc28cba97968e55b8088e13f30fdf4e53a09573ef775643a594715fc93e4e9d7d",
      "transactionIndex": "0x53",
      "blockHash": "0xd3ecb80b70986e1b733f9971534962f40d74e5aec20da90ec70bc1fbd4023e54",
      "blockNumber": "0xd22f09",
      "gasUsed": "0x1969e",
      "effectiveGasPrice": "0x781f830",
      "from": "0x16760803046ffa4d05878333b0953bbddc0c20cb",
      "to": "0x56b10bf5e47c8262569f3119dfb4be457795c8a2",
      "contractAddress": null,
      "l1Fee": "0x42ff7fefc",
      "l1GasPrice": "0x14b2ad521",
      "l1GasUsed": "0xb7c"
    }
  ],
  "libraries": [],
  "pending": [],
  "returns": {},
  "timestamp": 1714338556,
  "chain": 8453,
  "commit": "1755dcb"
}