{
  "transactions": [
    {
      "hash": "0x2fab5c4949803801926fa2004d1fe12f1efdb706627365e394bb4dd1448b4ff2",
      "transactionType": "CALL",
      "contractName": null,
      "contractAddress": "0x56b10bf5e47c8262569f3119dfb4be457795c8a2",
      "function": "initFloaty(bytes,address,uint256)",
      "arguments": [
        "0xf09f988e",
        "0xCb2861a1ec1D0392afb9E342d5AA539e4f75b633",
        "500000000000000000000"
      ],
      "transaction": {
        "from": "0x16760803046ffa4d05878333b0953bbddc0c20cb",
        "to": "0x56b10bf5e47c8262569f3119dfb4be457795c8a2",
        "gas": "0x25291",
        "value": "0x0",
        "input": "0x5974fd010000000000000000000000000000000000000000000000000000000000000060000000000000000000000000cb2861a1ec1d0392afb9e342d5aa539e4f75b63300000000000000000000000000000000000000000000001b1ae4d6e2ef5000000000000000000000000000000000000000000000000000000000000000000004f09f988e00000000000000000000000000000000000000000000000000000000",
        "nonce": "0xfc",
        "chainId": "0x2105",
        "accessList": null,
        "type": null
      },
      "additionalContracts": [],
      "isFixedGasLimit": false
    }
  ],
  "receipts": [
    {
      "status": "0x1",
      "cumulativeGasUsed": "0xb009a",
      "logs": [
        {
          "address": "0x56b10bf5e47c8262569f3119dfb4be457795c8a2",
          "topics": [
            "0x9d010941ff99f045330675d426e0ef9af37e9ee6aed43fec1376c3f2acd56106"
          ],
          "data": "0x0000000000000000000000000000000000000000000000000000000000000060000000000000000000000000cb2861a1ec1d0392afb9e342d5aa539e4f75b63300000000000000000000000000000000000000000000001b1ae4d6e2ef5000000000000000000000000000000000000000000000000000000000000000000004f09f988e00000000000000000000000000000000000000000000000000000000",
          "blockHash": "0x155a8152e1c2d325b2dfd1dc558b4b47e7436b99f9b9746056530b3b0fa02af7",
          "blockNumber": "0xc7ae36",
          "transactionHash": "0x2fab5c4949803801926fa2004d1fe12f1efdb706627365e394bb4dd1448b4ff2",
          "transactionIndex": "0x6",
          "logIndex": "0x13",
          "removed": false
        }
      ],
      "logsBloom": "0x00000000000000000000000000000008000000000000000000000000000000000000000000000000000000000000000000000000000000000000000000000000000000001000000000000000000000000000000000000000080000000000000000000000000000000000000000000000000000000000000000000000000000000000000000000000000000000000000000000000000000000000000000000000000000000000000000000000000000000000000000000000000000000000000000400000000000000000000100000000000000000000000020000000000000000000000000000000000000000000000000000000000000000000000000000000",
      "type": "0x2",
      "transactionHash": "0x2fab5c4949803801926fa2004d1fe12f1efdb706627365e394bb4dd1448b4ff2",
      "transactionIndex": "0x6",
      "blockHash": "0x155a8152e1c2d325b2dfd1dc558b4b47e7436b99f9b9746056530b3b0fa02af7",
      "blockNumber": "0xc7ae36",
      "gasUsed": "0x1968b",
      "effectiveGasPrice": "0xcbe573",
      "from": "0x16760803046ffa4d05878333b0953bbddc0c20cb",
      "to": "0x56b10bf5e47c8262569f3119dfb4be457795c8a2",
      "contractAddress": null,
      "l1Fee": "0xd4c5b686c",
      "l1GasPrice": "0x425d55ecc",
      "l1GasUsed": "0xb60"
    }
  ],
  "libraries": [],
  "pending": [],
  "returns": {},
  "timestamp": 1712961876,
  "chain": 8453,
  "commit": "7009e53"
}