{
  "transactions": [
    {
      "hash": "0xbd40e8211d16bac02856ed8c8850ea51fbe9e03141eb084267e8798f875c943f",
      "transactionType": "CALL",
      "contractName": null,
      "contractAddress": "0x56b10bf5e47c8262569f3119dfb4be457795c8a2",
      "function": "initFloaty(bytes,address,uint256)",
      "arguments": [
        "0xf09f8d8c",
        "0x9A27C6759A6de0F26Ac41264f0856617DeC6bC3F",
        "100000000000000000000"
      ],
      "transaction": {
        "from": "0x16760803046ffa4d05878333b0953bbddc0c20cb",
        "to": "0x56b10bf5e47c8262569f3119dfb4be457795c8a2",
        "gas": "0x231a2",
        "value": "0x0",
        "input": "0x5974fd0100000000000000000000000000000000000000000000000000000000000000600000000000000000000000009a27c6759a6de0f26ac41264f0856617dec6bc3f0000000000000000000000000000000000000000000000056bc75e2d631000000000000000000000000000000000000000000000000000000000000000000004f09f8d8c00000000000000000000000000000000000000000000000000000000",
        "nonce": "0x14e",
        "chainId": "0x2105",
        "accessList": null,
        "type": null
      },
      "additionalContracts": [],
      "isFixedGasLimit": false
    },
    {
      "hash": "0x55e603e3e131793802f3475f3fd869978884f471c033cc378bb6c2146416087f",
      "transactionType": "CALL",
      "contractName": null,
      "contractAddress": "0x56b10bf5e47c8262569f3119dfb4be457795c8a2",
      "function": "initFloaty(bytes,address,uint256)",
      "arguments": [
        "0xe29da4efb88f",
        "0xA19328fb05ce6FD204D16c2a2A98F7CF434c12F4",
        "690000000000000000000"
      ],
      "transaction": {
        "from": "0x16760803046ffa4d05878333b0953bbddc0c20cb",
        "to": "0x56b10bf5e47c8262569f3119dfb4be457795c8a2",
        "gas": "0x231c4",
        "value": "0x0",
        "input": "0x5974fd010000000000000000000000000000000000000000000000000000000000000060000000000000000000000000a19328fb05ce6fd204d16c2a2a98f7cf434c12f400000000000000000000000000000000000000000000002567ac70392b8800000000000000000000000000000000000000000000000000000000000000000006e29da4efb88f0000000000000000000000000000000000000000000000000000",
        "nonce": "0x14f",
        "chainId": "0x2105",
        "accessList": null,
        "type": null
      },
      "additionalContracts": [],
      "isFixedGasLimit": false
    },
    {
      "hash": "0x9f214e6a2688018d0a680545052a068f20f8970e54daef69d7894e5e5b0064fe",
      "transactionType": "CALL",
      "contractName": null,
      "contractAddress": "0x56b10bf5e47c8262569f3119dfb4be457795c8a2",
      "function": "initFloaty(bytes,address,uint256)",
      "arguments": [
        "0xf09f9983",
        "0x8011eef8FC855Df1c4f421443f306E19818e60D3",
        "69000000000000000000"
      ],
      "transaction": {
        "from": "0x16760803046ffa4d05878333b0953bbddc0c20cb",
        "to": "0x56b10bf5e47c8262569f3119dfb4be457795c8a2",
        "gas": "0x231a2",
        "value": "0x0",
        "input": "0x5974fd0100000000000000000000000000000000000000000000000000000000000000600000000000000000000000008011eef8fc855df1c4f421443f306e19818e60d3000000000000000000000000000000000000000000000003bd913e6c1df400000000000000000000000000000000000000000000000000000000000000000004f09f998300000000000000000000000000000000000000000000000000000000",
        "nonce": "0x150",
        "chainId": "0x2105",
        "accessList": null,
        "type": null
      },
      "additionalContracts": [],
      "isFixedGasLimit": false
    },
    {
      "hash": "0xe585542f8a515fafec8a5ea676020d7cd17c60cd0a52097d3686918d3421c348",
      "transactionType": "CALL",
      "contractName": null,
      "contractAddress": "0x56b10bf5e47c8262569f3119dfb4be457795c8a2",
      "function": "initFloaty(bytes,address,uint256)",
      "arguments": [
        "0xf09f98bc",
        "0xAC1Bd2486aAf3B5C0fc3Fd868558b082a531B2B4",
        "420000000000000000000"
      ],
      "transaction": {
        "from": "0x16760803046ffa4d05878333b0953bbddc0c20cb",
        "to": "0x56b10bf5e47c8262569f3119dfb4be457795c8a2",
        "gas": "0x231a2",
        "value": "0x0",
        "input": "0x5974fd010000000000000000000000000000000000000000000000000000000000000060000000000000000000000000ac1bd2486aaf3b5c0fc3fd868558b082a531b2b4000000000000000000000000000000000000000000000016c4abbebea01000000000000000000000000000000000000000000000000000000000000000000004f09f98bc00000000000000000000000000000000000000000000000000000000",
        "nonce": "0x151",
        "chainId": "0x2105",
        "accessList": null,
        "type": null
      },
      "additionalContracts": [],
      "isFixedGasLimit": false
    },
    {
      "hash": "0x192e9609985cf7abbaece46a87a61501dbbeb2eabdaa305740c038e508f19cf1",
      "transactionType": "CALL",
      "contractName": null,
      "contractAddress": "0x56b10bf5e47c8262569f3119dfb4be457795c8a2",
      "function": "initFloaty(bytes,address,uint256)",
      "arguments": [
        "0xf09f92a8",
        "0xd7D919Ea0c33A97ad6e7BD4F510498e2ec98Cb78",
        "100000000000000000000000"
      ],
      "transaction": {
        "from": "0x16760803046ffa4d05878333b0953bbddc0c20cb",
        "to": "0x56b10bf5e47c8262569f3119dfb4be457795c8a2",
        "gas": "0x252be",
        "value": "0x0",
        "input": "0x5974fd010000000000000000000000000000000000000000000000000000000000000060000000000000000000000000d7d919ea0c33a97ad6e7bd4f510498e2ec98cb7800000000000000000000000000000000000000000000152d02c7e14af68000000000000000000000000000000000000000000000000000000000000000000004f09f92a800000000000000000000000000000000000000000000000000000000",
        "nonce": "0x152",
        "chainId": "0x2105",
        "accessList": null,
        "type": null
      },
      "additionalContracts": [],
      "isFixedGasLimit": false
    }
  ],
  "receipts": [
    {
      "status": "0x1",
      "cumulativeGasUsed": "0x734d9c",
      "logs": [
        {
          "address": "0x56b10bf5e47c8262569f3119dfb4be457795c8a2",
          "topics": [
            "0x9d010941ff99f045330675d426e0ef9af37e9ee6aed43fec1376c3f2acd56106"
          ],
          "data": "0x00000000000000000000000000000000000000000000000000000000000000600000000000000000000000009a27c6759a6de0f26ac41264f0856617dec6bc3f0000000000000000000000000000000000000000000000056bc75e2d631000000000000000000000000000000000000000000000000000000000000000000004f09f8d8c00000000000000000000000000000000000000000000000000000000",
          "blockHash": "0x696b179d3c5cd5a3c50de23fa4cd6a78b32142da09c9968c0c3c5009da6f2b57",
          "blockNumber": "0xcf0506",
          "transactionHash": "0xbd40e8211d16bac02856ed8c8850ea51fbe9e03141eb084267e8798f875c943f",
          "transactionIndex": "0x30",
          "logIndex": "0xd9",
          "removed": false
        }
      ],
      "logsBloom": "0x00000000000000000000000000000008000000000000000000000000000000000000000000000000000000000000000000000000000000000000000000000000000000001000000000000000000000000000000000000000080000000000000000000000000000000000000000000000000000000000000000000000000000000000000000000000000000000000000000000000000000000000000000000000000000000000000000000000000000000000000000000000000000000000000000400000000000000000000100000000000000000000000020000000000000000000000000000000000000000000000000000000000000000000000000000000",
      "type": "0x2",
      "transactionHash": "0xbd40e8211d16bac02856ed8c8850ea51fbe9e03141eb084267e8798f875c943f",
      "transactionIndex": "0x30",
      "blockHash": "0x696b179d3c5cd5a3c50de23fa4cd6a78b32142da09c9968c0c3c5009da6f2b57",
      "blockNumber": "0xcf0506",
      "gasUsed": "0x1969e",
      "effectiveGasPrice": "0x1f5992f",
      "from": "0x16760803046ffa4d05878333b0953bbddc0c20cb",
      "to": "0x56b10bf5e47c8262569f3119dfb4be457795c8a2",
      "contractAddress": null,
      "l1Fee": "0x89f32ef73",
      "l1GasPrice": "0x2a9e0d484",
      "l1GasUsed": "0xb7c"
    },
    {
      "status": "0x1",
      "cumulativeGasUsed": "0x74e452",
      "logs": [
        {
          "address": "0x56b10bf5e47c8262569f3119dfb4be457795c8a2",
          "topics": [
            "0x9d010941ff99f045330675d426e0ef9af37e9ee6aed43fec1376c3f2acd56106"
          ],
          "data": "0x0000000000000000000000000000000000000000000000000000000000000060000000000000000000000000a19328fb05ce6fd204d16c2a2a98f7cf434c12f400000000000000000000000000000000000000000000002567ac70392b8800000000000000000000000000000000000000000000000000000000000000000006e29da4efb88f0000000000000000000000000000000000000000000000000000",
          "blockHash": "0x696b179d3c5cd5a3c50de23fa4cd6a78b32142da09c9968c0c3c5009da6f2b57",
          "blockNumber": "0xcf0506",
          "transactionHash": "0x55e603e3e131793802f3475f3fd869978884f471c033cc378bb6c2146416087f",
          "transactionIndex": "0x31",
          "logIndex": "0xda",
          "removed": false
        }
      ],
      "logsBloom": "0x00000000000000000000000000000008000000000000000000000000000000000000000000000000000000000000000000000000000000000000000000000000000000001000000000000000000000000000000000000000080000000000000000000000000000000000000000000000000000000000000000000000000000000000000000000000000000000000000000000000000000000000000000000000000000000000000000000000000000000000000000000000000000000000000000400000000000000000000100000000000000000000000020000000000000000000000000000000000000000000000000000000000000000000000000000000",
      "type": "0x2",
      "transactionHash": "0x55e603e3e131793802f3475f3fd869978884f471c033cc378bb6c2146416087f",
      "transactionIndex": "0x31",
      "blockHash": "0x696b179d3c5cd5a3c50de23fa4cd6a78b32142da09c9968c0c3c5009da6f2b57",
      "blockNumber": "0xcf0506",
      "gasUsed": "0x196b6",
      "effectiveGasPrice": "0x1f5992f",
      "from": "0x16760803046ffa4d05878333b0953bbddc0c20cb",
      "to": "0x56b10bf5e47c8262569f3119dfb4be457795c8a2",
      "contractAddress": null,
      "l1Fee": "0x8b13787df",
      "l1GasPrice": "0x2a9e0d484",
      "l1GasUsed": "0xb94"
    },
    {
      "status": "0x1",
      "cumulativeGasUsed": "0x767af0",
      "logs": [
        {
          "address": "0x56b10bf5e47c8262569f3119dfb4be457795c8a2",
          "topics": [
            "0x9d010941ff99f045330675d426e0ef9af37e9ee6aed43fec1376c3f2acd56106"
          ],
          "data": "0x00000000000000000000000000000000000000000000000000000000000000600000000000000000000000008011eef8fc855df1c4f421443f306e19818e60d3000000000000000000000000000000000000000000000003bd913e6c1df400000000000000000000000000000000000000000000000000000000000000000004f09f998300000000000000000000000000000000000000000000000000000000",
          "blockHash": "0x696b179d3c5cd5a3c50de23fa4cd6a78b32142da09c9968c0c3c5009da6f2b57",
          "blockNumber": "0xcf0506",
          "transactionHash": "0x9f214e6a2688018d0a680545052a068f20f8970e54daef69d7894e5e5b0064fe",
          "transactionIndex": "0x32",
          "logIndex": "0xdb",
          "removed": false
        }
      ],
      "logsBloom": "0x00000000000000000000000000000008000000000000000000000000000000000000000000000000000000000000000000000000000000000000000000000000000000001000000000000000000000000000000000000000080000000000000000000000000000000000000000000000000000000000000000000000000000000000000000000000000000000000000000000000000000000000000000000000000000000000000000000000000000000000000000000000000000000000000000400000000000000000000100000000000000000000000020000000000000000000000000000000000000000000000000000000000000000000000000000000",
      "type": "0x2",
      "transactionHash": "0x9f214e6a2688018d0a680545052a068f20f8970e54daef69d7894e5e5b0064fe",
      "transactionIndex": "0x32",
      "blockHash": "0x696b179d3c5cd5a3c50de23fa4cd6a78b32142da09c9968c0c3c5009da6f2b57",
      "blockNumber": "0xcf0506",
      "gasUsed": "0x1969e",
      "effectiveGasPrice": "0x1f5992f",
      "from": "0x16760803046ffa4d05878333b0953bbddc0c20cb",
      "to": "0x56b10bf5e47c8262569f3119dfb4be457795c8a2",
      "contractAddress": null,
      "l1Fee": "0x89630a33e",
      "l1GasPrice": "0x2a9e0d484",
      "l1GasUsed": "0xb70"
    },
    {
      "status": "0x1",
      "cumulativeGasUsed": "0x78118e",
      "logs": [
        {
          "address": "0x56b10bf5e47c8262569f3119dfb4be457795c8a2",
          "topics": [
            "0x9d010941ff99f045330675d426e0ef9af37e9ee6aed43fec1376c3f2acd56106"
          ],
          "data": "0x0000000000000000000000000000000000000000000000000000000000000060000000000000000000000000ac1bd2486aaf3b5c0fc3fd868558b082a531b2b4000000000000000000000000000000000000000000000016c4abbebea01000000000000000000000000000000000000000000000000000000000000000000004f09f98bc00000000000000000000000000000000000000000000000000000000",
          "blockHash": "0x696b179d3c5cd5a3c50de23fa4cd6a78b32142da09c9968c0c3c5009da6f2b57",
          "blockNumber": "0xcf0506",
          "transactionHash": "0xe585542f8a515fafec8a5ea676020d7cd17c60cd0a52097d3686918d3421c348",
          "transactionIndex": "0x33",
          "logIndex": "0xdc",
          "removed": false
        }
      ],
      "logsBloom": "0x00000000000000000000000000000008000000000000000000000000000000000000000000000000000000000000000000000000000000000000000000000000000000001000000000000000000000000000000000000000080000000000000000000000000000000000000000000000000000000000000000000000000000000000000000000000000000000000000000000000000000000000000000000000000000000000000000000000000000000000000000000000000000000000000000400000000000000000000100000000000000000000000020000000000000000000000000000000000000000000000000000000000000000000000000000000",
      "type": "0x2",
      "transactionHash": "0xe585542f8a515fafec8a5ea676020d7cd17c60cd0a52097d3686918d3421c348",
      "transactionIndex": "0x33",
      "blockHash": "0x696b179d3c5cd5a3c50de23fa4cd6a78b32142da09c9968c0c3c5009da6f2b57",
      "blockNumber": "0xcf0506",
      "gasUsed": "0x1969e",
      "effectiveGasPrice": "0x1f5992f",
      "from": "0x16760803046ffa4d05878333b0953bbddc0c20cb",
      "to": "0x56b10bf5e47c8262569f3119dfb4be457795c8a2",
      "contractAddress": null,
      "l1Fee": "0x89f32ef73",
      "l1GasPrice": "0x2a9e0d484",
      "l1GasUsed": "0xb7c"
    },
    {
      "status": "0x1",
      "cumulativeGasUsed": "0x79a838",
      "logs": [
        {
          "address": "0x56b10bf5e47c8262569f3119dfb4be457795c8a2",
          "topics": [
            "0x9d010941ff99f045330675d426e0ef9af37e9ee6aed43fec1376c3f2acd56106"
          ],
          "data": "0x0000000000000000000000000000000000000000000000000000000000000060000000000000000000000000d7d919ea0c33a97ad6e7bd4f510498e2ec98cb7800000000000000000000000000000000000000000000152d02c7e14af68000000000000000000000000000000000000000000000000000000000000000000004f09f92a800000000000000000000000000000000000000000000000000000000",
          "blockHash": "0x696b179d3c5cd5a3c50de23fa4cd6a78b32142da09c9968c0c3c5009da6f2b57",
          "blockNumber": "0xcf0506",
          "transactionHash": "0x192e9609985cf7abbaece46a87a61501dbbeb2eabdaa305740c038e508f19cf1",
          "transactionIndex": "0x34",
          "logIndex": "0xdd",
          "removed": false
        }
      ],
      "logsBloom": "0x00000000000000000000000000000008000000000000000000000000000000000000000000000000000000000000000000000000000000000000000000000000000000001000000000000000000000000000000000000000080000000000000000000000000000000000000000000000000000000000000000000000000000000000000000000000000000000000000000000000000000000000000000000000000000000000000000000000000000000000000000000000000000000000000000400000000000000000000100000000000000000000000020000000000000000000000000000000000000000000000000000000000000000000000000000000",
      "type": "0x2",
      "transactionHash": "0x192e9609985cf7abbaece46a87a61501dbbeb2eabdaa305740c038e508f19cf1",
      "transactionIndex": "0x34",
      "blockHash": "0x696b179d3c5cd5a3c50de23fa4cd6a78b32142da09c9968c0c3c5009da6f2b57",
      "blockNumber": "0xcf0506",
      "gasUsed": "0x196aa",
      "effectiveGasPrice": "0x1f5992f",
      "from": "0x16760803046ffa4d05878333b0953bbddc0c20cb",
      "to": "0x56b10bf5e47c8262569f3119dfb4be457795c8a2",
      "contractAddress": null,
      "l1Fee": "0x8a8353ba9",
      "l1GasPrice": "0x2a9e0d484",
      "l1GasUsed": "0xb88"
    }
  ],
  "libraries": [],
  "pending": [],
  "returns": {},
  "timestamp": 1713923829,
  "chain": 8453,
  "commit": "7009e53"
}