{
  "transactions": [
    {
      "hash": "0xeadda16e66ced6f9ad8d7390876a8db60c269df4c8fd9802ea4c359599fe4523",
      "transactionType": "CALL",
      "contractName": null,
      "contractAddress": "0x56b10bf5e47c8262569f3119dfb4be457795c8a2",
      "function": "initFloaty(bytes,address,uint256)",
      "arguments": [
        "0xf09fa696",
        "0x40926C81B7C2E8E770EB382a35959B91626b8153",
        "1000000000000000000"
      ],
      "transaction": {
        "from": "0x16760803046ffa4d05878333b0953bbddc0c20cb",
        "to": "0x56b10bf5e47c8262569f3119dfb4be457795c8a2",
        "gas": "0x11d6e",
        "value": "0x0",
        "input": "0x5974fd01000000000000000000000000000000000000000000000000000000000000006000000000000000000000000040926c81b7c2e8e770eb382a35959b91626b81530000000000000000000000000000000000000000000000000de0b6b3a76400000000000000000000000000000000000000000000000000000000000000000004f09fa69600000000000000000000000000000000000000000000000000000000",
        "nonce": "0x10f",
        "chainId": "0x2105",
        "accessList": null,
        "type": null
      },
      "additionalContracts": [],
      "isFixedGasLimit": false
    },
    {
      "hash": "0x00b3d7a905ddba3d5e2e8b0364d45f70f2e473584ba70ffac454a174f09fbdf8",
      "transactionType": "CALL",
      "contractName": null,
      "contractAddress": "0x56b10bf5e47c8262569f3119dfb4be457795c8a2",
      "function": "initFloaty(bytes,address,uint256)",
      "arguments": [
        "0xf09fa5b1",
        "0x70737489DFDf1A29b7584d40500d3561bD4Fe196",
        "50000000000000000000"
      ],
      "transaction": {
        "from": "0x16760803046ffa4d05878333b0953bbddc0c20cb",
        "to": "0x56b10bf5e47c8262569f3119dfb4be457795c8a2",
        "gas": "0x25291",
        "value": "0x0",
        "input": "0x5974fd01000000000000000000000000000000000000000000000000000000000000006000000000000000000000000070737489dfdf1a29b7584d40500d3561bd4fe196000000000000000000000000000000000000000000000002b5e3af16b18800000000000000000000000000000000000000000000000000000000000000000004f09fa5b100000000000000000000000000000000000000000000000000000000",
        "nonce": "0x110",
        "chainId": "0x2105",
        "accessList": null,
        "type": null
      },
      "additionalContracts": [],
      "isFixedGasLimit": false
    },
    {
      "hash": "0x81a7e961c2fda83576ebeb49b54f04e2bd1f4feaf2da6ecfff6c2d27d357da3d",
      "transactionType": "CALL",
      "contractName": null,
      "contractAddress": "0x56b10bf5e47c8262569f3119dfb4be457795c8a2",
      "function": "initFloaty(bytes,address,uint256)",
      "arguments": [
        "0xf09f928a",
        "0x388E543a5A491E7B42e3fBcd127DD6812Ea02D0d",
        "1000000000000000000000"
      ],
      "transaction": {
        "from": "0x16760803046ffa4d05878333b0953bbddc0c20cb",
        "to": "0x56b10bf5e47c8262569f3119dfb4be457795c8a2",
        "gas": "0x25291",
        "value": "0x0",
        "input": "0x5974fd010000000000000000000000000000000000000000000000000000000000000060000000000000000000000000388e543a5a491e7b42e3fbcd127dd6812ea02d0d00000000000000000000000000000000000000000000003635c9adc5dea000000000000000000000000000000000000000000000000000000000000000000004f09f928a00000000000000000000000000000000000000000000000000000000",
        "nonce": "0x111",
        "chainId": "0x2105",
        "accessList": null,
        "type": null
      },
      "additionalContracts": [],
      "isFixedGasLimit": false
    }
  ],
  "receipts": [
    {
      "status": "0x1",
      "cumulativeGasUsed": "0x7455e5",
      "logs": [
        {
          "address": "0x56b10bf5e47c8262569f3119dfb4be457795c8a2",
          "topics": [
            "0x9d010941ff99f045330675d426e0ef9af37e9ee6aed43fec1376c3f2acd56106"
          ],
          "data": "0x000000000000000000000000000000000000000000000000000000000000006000000000000000000000000040926c81b7c2e8e770eb382a35959b91626b81530000000000000000000000000000000000000000000000000de0b6b3a76400000000000000000000000000000000000000000000000000000000000000000004f09fa69600000000000000000000000000000000000000000000000000000000",
          "blockHash": "0xc46919b68f5edbb19f1abd74227bc17ad19ebba254925a731b9dfacd2e583aaa",
          "blockNumber": "0xc90f77",
          "transactionHash": "0xeadda16e66ced6f9ad8d7390876a8db60c269df4c8fd9802ea4c359599fe4523",
          "transactionIndex": "0x2d",
          "logIndex": "0x96",
          "removed": false
        }
      ],
      "logsBloom": "0x00000000000000000000000000000008000000000000000000000000000000000000000000000000000000000000000000000000000000000000000000000000000000001000000000000000000000000000000000000000080000000000000000000000000000000000000000000000000000000000000000000000000000000000000000000000000000000000000000000000000000000000000000000000000000000000000000000000000000000000000000000000000000000000000000400000000000000000000100000000000000000000000020000000000000000000000000000000000000000000000000000000000000000000000000000000",
      "type": "0x2",
      "transactionHash": "0xeadda16e66ced6f9ad8d7390876a8db60c269df4c8fd9802ea4c359599fe4523",
      "transactionIndex": "0x2d",
      "blockHash": "0xc46919b68f5edbb19f1abd74227bc17ad19ebba254925a731b9dfacd2e583aaa",
      "blockNumber": "0xc90f77",
      "gasUsed": "0xc32b",
      "effectiveGasPrice": "0x1082feb",
      "from": "0x16760803046ffa4d05878333b0953bbddc0c20cb",
      "to": "0x56b10bf5e47c8262569f3119dfb4be457795c8a2",
      "contractAddress": null,
      "l1Fee": "0x62ea8eb8f",
      "l1GasPrice": "0x1ecf6118e",
      "l1GasUsed": "0xb64"
    },
    {
      "status": "0x1",
      "cumulativeGasUsed": "0x75ec70",
      "logs": [
        {
          "address": "0x56b10bf5e47c8262569f3119dfb4be457795c8a2",
          "topics": [
            "0x9d010941ff99f045330675d426e0ef9af37e9ee6aed43fec1376c3f2acd56106"
          ],
          "data": "0x000000000000000000000000000000000000000000000000000000000000006000000000000000000000000070737489dfdf1a29b7584d40500d3561bd4fe196000000000000000000000000000000000000000000000002b5e3af16b18800000000000000000000000000000000000000000000000000000000000000000004f09fa5b100000000000000000000000000000000000000000000000000000000",
          "blockHash": "0xc46919b68f5edbb19f1abd74227bc17ad19ebba254925a731b9dfacd2e583aaa",
          "blockNumber": "0xc90f77",
          "transactionHash": "0x00b3d7a905ddba3d5e2e8b0364d45f70f2e473584ba70ffac454a174f09fbdf8",
          "transactionIndex": "0x2e",
          "logIndex": "0x97",
          "removed": false
        }
      ],
      "logsBloom": "0x00000000000000000000000000000008000000000000000000000000000000000000000000000000000000000000000000000000000000000000000000000000000000001000000000000000000000000000000000000000080000000000000000000000000000000000000000000000000000000000000000000000000000000000000000000000000000000000000000000000000000000000000000000000000000000000000000000000000000000000000000000000000000000000000000400000000000000000000100000000000000000000000020000000000000000000000000000000000000000000000000000000000000000000000000000000",
      "type": "0x2",
      "transactionHash": "0x00b3d7a905ddba3d5e2e8b0364d45f70f2e473584ba70ffac454a174f09fbdf8",
      "transactionIndex": "0x2e",
      "blockHash": "0xc46919b68f5edbb19f1abd74227bc17ad19ebba254925a731b9dfacd2e583aaa",
      "blockNumber": "0xc90f77",
      "gasUsed": "0x1968b",
      "effectiveGasPrice": "0x1082feb",
      "from": "0x16760803046ffa4d05878333b0953bbddc0c20cb",
      "to": "0x56b10bf5e47c8262569f3119dfb4be457795c8a2",
      "contractAddress": null,
      "l1Fee": "0x63baf93f3",
      "l1GasPrice": "0x1ecf6118e",
      "l1GasUsed": "0xb7c"
    },
    {
      "status": "0x1",
      "cumulativeGasUsed": "0x7782fb",
      "logs": [
        {
          "address": "0x56b10bf5e47c8262569f3119dfb4be457795c8a2",
          "topics": [
            "0x9d010941ff99f045330675d426e0ef9af37e9ee6aed43fec1376c3f2acd56106"
          ],
          "data": "0x0000000000000000000000000000000000000000000000000000000000000060000000000000000000000000388e543a5a491e7b42e3fbcd127dd6812ea02d0d00000000000000000000000000000000000000000000003635c9adc5dea000000000000000000000000000000000000000000000000000000000000000000004f09f928a00000000000000000000000000000000000000000000000000000000",
          "blockHash": "0xc46919b68f5edbb19f1abd74227bc17ad19ebba254925a731b9dfacd2e583aaa",
          "blockNumber": "0xc90f77",
          "transactionHash": "0x81a7e961c2fda83576ebeb49b54f04e2bd1f4feaf2da6ecfff6c2d27d357da3d",
          "transactionIndex": "0x2f",
          "logIndex": "0x98",
          "removed": false
        }
      ],
      "logsBloom": "0x00000000000000000000000000000008000000000000000000000000000000000000000000000000000000000000000000000000000000000000000000000000000000001000000000000000000000000000000000000000080000000000000000000000000000000000000000000000000000000000000000000000000000000000000000000000000000000000000000000000000000000000000000000000000000000000000000000000000000000000000000000000000000000000000000400000000000000000000100000000000000000000000020000000000000000000000000000000000000000000000000000000000000000000000000000000",
      "type": "0x2",
      "transactionHash": "0x81a7e961c2fda83576ebeb49b54f04e2bd1f4feaf2da6ecfff6c2d27d357da3d",
      "transactionIndex": "0x2f",
      "blockHash": "0xc46919b68f5edbb19f1abd74227bc17ad19ebba254925a731b9dfacd2e583aaa",
      "blockNumber": "0xc90f77",
      "gasUsed": "0x1968b",
      "effectiveGasPrice": "0x1082feb",
      "from": "0x16760803046ffa4d05878333b0953bbddc0c20cb",
      "to": "0x56b10bf5e47c8262569f3119dfb4be457795c8a2",
      "contractAddress": null,
      "l1Fee": "0x63baf93f3",
      "l1GasPrice": "0x1ecf6118e",
      "l1GasUsed": "0xb7c"
    }
  ],
  "libraries": [],
  "pending": [],
  "returns": {},
  "timestamp": 1713142743,
  "chain": 8453,
  "commit": "7009e53"
}