{
  "transactions": [
    {
      "hash": "0x3da77304e32fd22570301db40bd4910865ccb91cf517ccb4beaa63bc9d6d1f47",
      "transactionType": "CALL",
      "contractName": null,
      "contractAddress": "0x56b10bf5e47c8262569f3119dfb4be457795c8a2",
      "function": "initFloaty(bytes,address,uint256)",
      "arguments": [
        "0xf09f9088",
        "0xE4fCf2D991505089bBb36275570757c1f9800cB0",
        "500000000000000000000"
      ],
      "transaction": {
        "from": "0x16760803046ffa4d05878333b0953bbddc0c20cb",
        "to": "0x56b10bf5e47c8262569f3119dfb4be457795c8a2",
        "gas": "0x231a2",
        "value": "0x0",
        "input": "0x5974fd010000000000000000000000000000000000000000000000000000000000000060000000000000000000000000e4fcf2d991505089bbb36275570757c1f9800cb000000000000000000000000000000000000000000000001b1ae4d6e2ef5000000000000000000000000000000000000000000000000000000000000000000004f09f908800000000000000000000000000000000000000000000000000000000",
        "nonce": "0x12d",
        "chainId": "0x2105",
        "accessList": null,
        "type": null
      },
      "additionalContracts": [],
      "isFixedGasLimit": false
    }
  ],
  "receipts": [
    {
      "status": "0x1",
      "cumulativeGasUsed": "0x3f6c8a",
      "logs": [
        {
          "address": "0x56b10bf5e47c8262569f3119dfb4be457795c8a2",
          "topics": [
            "0x9d010941ff99f045330675d426e0ef9af37e9ee6aed43fec1376c3f2acd56106"
          ],
          "data": "0x0000000000000000000000000000000000000000000000000000000000000060000000000000000000000000e4fcf2d991505089bbb36275570757c1f9800cb000000000000000000000000000000000000000000000001b1ae4d6e2ef5000000000000000000000000000000000000000000000000000000000000000000004f09f908800000000000000000000000000000000000000000000000000000000",
          "blockHash": "0x9498a93cd431ef66d12a67da5ba262fc5dcc3678b3332dc934adce017cb34fd2",
          "blockNumber": "0xcb8251",
          "transactionHash": "0x3da77304e32fd22570301db40bd4910865ccb91cf517ccb4beaa63bc9d6d1f47",
          "transactionIndex": "0x25",
          "logIndex": "0x6d",
          "removed": false
        }
      ],
      "logsBloom": "0x00000000000000000000000000000008000000000000000000000000000000000000000000000000000000000000000000000000000000000000000000000000000000001000000000000000000000000000000000000000080000000000000000000000000000000000000000000000000000000000000000000000000000000000000000000000000000000000000000000000000000000000000000000000000000000000000000000000000000000000000000000000000000000000000000400000000000000000000100000000000000000000000020000000000000000000000000000000000000000000000000000000000000000000000000000000",
      "type": "0x2",
      "transactionHash": "0x3da77304e32fd22570301db40bd4910865ccb91cf517ccb4beaa63bc9d6d1f47",
      "transactionIndex": "0x25",
      "blockHash": "0x9498a93cd431ef66d12a67da5ba262fc5dcc3678b3332dc934adce017cb34fd2",
      "blockNumber": "0xcb8251",
      "gasUsed": "0x1969e",
      "effectiveGasPrice": "0x5e5fd75",
      "from": "0x16760803046ffa4d05878333b0953bbddc0c20cb",
      "to": "0x56b10bf5e47c8262569f3119dfb4be457795c8a2",
      "contractAddress": null,
      "l1Fee": "0xa0ee89a81",
      "l1GasPrice": "0x31b79e59a",
      "l1GasUsed": "0xb7c"
    }
  ],
  "libraries": [],
  "pending": [],
  "returns": {},
  "timestamp": 1713463690,
  "chain": 8453,
  "commit": "7009e53"
}